:020000040800F2
:100000000000022015C90008E5660008ED6600083A
:10001000F5660008FD66000805670008000000009E
:100020000000000000000000000000000D67000854
:100030001B670008000000002967000837670008F8
:1000400065C9000865C9000865C9000865C90008D8
:1000500065C9000865C9000865C9000865C90008C8
:1000600065C9000865C9000865C90008456700083A
:1000700065C9000865C9000865C9000865C90008A8
:100080005967000865C9000865C90008000000003C
:1000900000000000000000000000000065C900082A
:1000A00065C9000865C9000865C9000865C9000878
:1000B00065C9000865C9000865C9000865C9000868
:1000C00065C9000865C9000865C9000865C9000858
:1000D00065C900086D67000881670008000000001E
:1000E00065C9000865C9000865C90008000000006E
:1000F00000000000000000000000000065C90008CA
:100100000000000065C9000865C9000865C900084D
:1001100000000000000000000000000000000000DF
:1001200065C9000895670008A967000865C9000847
:1001300065C9000800000000000000000000000089
:1001400000000000000000000000000065C9000879
:1001500065C9000865C9000865C90008BD670008D1
:1001600065C9000865C90008000000000000000023
:10017000000000000000000000000000000000007F
:100180000000000065C90008000000000000000039
:0801900065C9000865C90008FB
:1001A00010B5054C237833B9044B13B10448AFF3B1
:1001B00000800123237010BDE00400200000000037
:1001C000380D010808B5034B1BB103490348AFF3D1
:1001D000008008BD00000000E4040020380D010884
:1001E00010F8012B11F8013B012A28BF9A42F7D0E1
:1001F000D01A7047034613F8012B002AFBD1181AB6
:1002000001387047000000000000000000000000FE
:1002100001F0FF01102A2BDB10F0070F08D010F8B7
:10022000013B013A8B422DD010F0070F42B3F6D1BB
:10023000F0B441EA012141EA014122F007047FF0D4
:1002400000070023F0E80256083C85EA010586EA2B
:10025000010685FA47F5A3FA87F586FA47F6A5FA67
:1002600087F68EB9EED1F0BC01F0FF0102F0070273
:1002700032B110F8013B013A83EA010313B1F8D11E
:100280000020704701387047002D06BF35460338FF
:10029000073815F0010F07D1013015F4807F02BF38
:1002A000013015F4C03F0130F0BC0138704700BF89
:1002B00081F0004102E000BF83F0004330B54FEA17
:1002C00041044FEA430594EA050F08BF90EA020F84
:1002D0001FBF54EA000C55EA020C7FEA645C7FEA17
:1002E000655C00F0E2804FEA5454D4EB5555B8BF3A
:1002F0006D420CDD2C4480EA020281EA030382EAAB
:10030000000083EA010180EA020281EA0303362D3C
:1003100088BF30BD11F0004F4FEA01314FF4801C0F
:100320004CEA113102D0404261EB410113F0004F21
:100330004FEA03334CEA133302D0524263EB4303D8
:1003400094EA050F00F0A780A4F10104D5F1200E76
:100350000DDB02FA0EFC22FA05F2801841F10001D1
:1003600003FA0EF2801843FA05F359410EE0A5F1A5
:1003700020050EF1200E012A03FA0EFC28BF4CF0D6
:10038000020C43FA05F3C01851EBE37101F000458C
:1003900007D54FF0000EDCF1000C7EEB00006EEB99
:1003A0000101B1F5801F1BD3B1F5001F0CD3490823
:1003B0005FEA30004FEA3C0C04F101044FEA44527A
:1003C00012F5800F80F09A80BCF1004F08BF5FEA01
:1003D000500C50F1000041EB045141EA050130BDE1
:1003E0005FEA4C0C404141EB0101013C28BFB1F5F3
:1003F000801FE9D291F0000F04BF01460020B1FA3E
:1004000081F308BF2033A3F10B03B3F120020CDA10
:100410000C3208DD02F1140CC2F10C0201FA0CF0EE
:1004200021FA02F10CE002F11402D8BFC2F1200C53
:1004300001FA02F120FA0CFCDCBF41EA0C01904009
:10044000E41AA2BF01EB0451294330BD6FEA040452
:100450001F3C1CDA0C340EDC04F11404C4F120023D
:1004600020FA04F001FA02F340EA030021FA04F34F
:1004700045EA030130BDC4F10C04C4F1200220FAA6
:1004800002F001FA04F340EA0300294630BD21FAE4
:1004900004F0294630BD94F0000F83F4801306BFAA
:1004A00081F480110134013D4EE77FEA645C18BF9E
:1004B0007FEA655C29D094EA050F08BF90EA020F35
:1004C00005D054EA000C04BF1946104630BD91EA2D
:1004D000030F1EBF0021002030BD5FEA545C05D130
:1004E0004000494128BF41F0004130BD14F580046F
:1004F0003CBF01F5801130BD01F0004545F0FE41E3
:1005000041F470014FF0000030BD7FEA645C1ABF17
:10051000194610467FEA655C1CBF0B46024650EA4E
:10052000013406BF52EA033591EA030F41F400217A
:1005300030BD00BF90F0000F04BF0021704730B500
:100540004FF4806404F132044FF000054FF00001D5
:1005500050E700BF90F0000F04BF0021704730B596
:100560004FF4806404F1320410F0004548BF40426B
:100570004FF000013EE700BF42004FEAE2014FEAC0
:1005800031014FEA02701FBF12F07F4393F07F4F9B
:1005900081F06051704732F07F4208BF704793F09E
:1005A0007F4F04BF41F40021704730B54FF46074B1
:1005B00001F0004521F000411CE700BF50EA0102B4
:1005C00008BF704730B54FF000050AE050EA01025D
:1005D00008BF704730B511F0004502D5404261EBCD
:1005E00041014FF4806404F132045FEA915C3FF40E
:1005F000D8AE4FF003025FEADC0C18BF03325FEAAB
:10060000DC0C18BF033202EBDC02C2F1200300FA5B
:1006100003FC20FA02F001FA03FE40EA0E0021FA80
:1006200002F11444BDE600BF70B54FF0FF0C4CF46E
:10063000E06C1CEA11541DBF1CEA135594EA0C0F20
:1006400095EA0C0F00F0DEF82C4481EA030621EA5B
:100650004C5123EA4C5350EA013518BF52EA033596
:1006600041F4801143F4801338D0A0FB02CE4FF048
:100670000005E1FB02E506F00042E0FB03E54FF078
:100680000006E1FB03569CF0000F18BF4EF0010E70
:10069000A4F1FF04B6F5007F64F5407404D25FEA6C
:1006A0004E0E6D4146EB060642EAC62141EA55511F
:1006B0004FEAC52040EA5E504FEACE2EB4F1FD0C61
:1006C00088BFBCF5E06F1ED8BEF1004F08BF5FEADF
:1006D000500E50F1000041EB045170BD06F0004691
:1006E00046EA010140EA020081EA0301B4EB5C043E
:1006F000C2BFD4EB0C0541EA045170BD41F4801136
:100700004FF0000E013C00F3AB8014F1360FDEBF5A
:10071000002001F0004170BDC4F10004203C35DA36
:100720000C341BDC04F11404C4F1200500FA05F3B9
:1007300020FA04F001FA05F240EA020001F000425A
:1007400021F0004110EBD37021FA04F642EB0601D0
:100750005EEA430E08BF20EAD37070BDC4F10C04FA
:10076000C4F1200500FA04F320FA05F001FA04F2BE
:1007700040EA020001F0004110EBD37041F10001AA
:100780005EEA430E08BF20EAD37070BDC4F12005B5
:1007900000FA05F24EEA020E20FA04F301FA05F21D
:1007A00043EA020321FA04F001F0004121FA04F2C5
:1007B00020EA020000EBD3705EEA430E08BF20EA95
:1007C000D37070BD94F0000F0FD101F000464000CF
:1007D00041EB010111F4801F08BF013CF7D041EA51
:1007E000060195F0000F18BF704703F00046520055
:1007F00043EB030313F4801F08BF013DF7D043EA26
:100800000603704794EA0C0F0CEA135518BF95EADB
:100810000C0F0CD050EA410618BF52EA4306D1D162
:1008200081EA030101F000414FF0000070BD50EA81
:10083000410606BF1046194652EA430619D094EA0B
:100840000C0F02D150EA013613D195EA0C0F05D1F5
:1008500052EA03361CBF104619460AD181EA030149
:1008600001F0004141F0FE4141F470014FF0000001
:1008700070BD41F0FE4141F4780170BD70B54FF09C
:10088000FF0C4CF4E06C1CEA11541DBF1CEA13551C
:1008900094EA0C0F95EA0C0F00F0A7F8A4EB0504FE
:1008A00081EA030E52EA03354FEA013100F08880F5
:1008B0004FEA03334FF0805545EA131343EA1263BE
:1008C0004FEA022245EA111545EA10654FEA002673
:1008D0000EF000419D4208BF964244F1FD0404F52C
:1008E000407402D25B084FEA3202B61A65EB030588
:1008F0005B084FEA32024FF480104FF4002CB6EB45
:10090000020E75EB030E22BFB61A754640EA0C00C4
:100910005B084FEA3202B6EB020E75EB030E22BF04
:10092000B61A754640EA5C005B084FEA3202B6EB45
:10093000020E75EB030E22BFB61A754640EA9C0004
:100940005B084FEA3202B6EB020E75EB030E22BFD4
:10095000B61A754640EADC0055EA060E18D04FEA92
:10096000051545EA16754FEA06164FEAC30343EA32
:1009700052734FEAC2025FEA1C1CC0D111F4801FFF
:100980000BD141EA00014FF000004FF0004CB6E7F8
:1009900011F4801F04BF01430020B4F1FD0C88BF97
:1009A000BCF5E06F3FF6AFAEB5EB030C04BFB6EBA2
:1009B000020C5FEA500C50F1000041EB045170BD95
:1009C0000EF0004E4EEA113114EB5C04C2BFD4EBC2
:1009D0000C0541EA045170BD41F480114FF0000E46
:1009E000013C90E645EA060E8DE60CEA135594EAC2
:1009F0000C0F08BF95EA0C0F3FF43BAF94EA0C0FC5
:100A00000AD150EA01347FF434AF95EA0C0F7FF439
:100A100025AF104619462CE795EA0C0F06D152EA8D
:100A200003353FF4FDAE1046194622E750EA410671
:100A300018BF52EA43067FF4C5AE50EA41047FF482
:100A40000DAF52EA43057FF4EBAE12E74FF0FF3CE7
:100A500006E000BF4FF0010C02E000BF4FF0010CB8
:100A60004DF804CD4FEA410C7FEA6C5C4FEA430C31
:100A700018BF7FEA6C5C1BD001B050EA410C0CBF80
:100A800052EA430C91EA030F02BF90EA020F0020E2
:100A9000704710F1000F91EA030F58BF994208BF49
:100AA00090422CBFD8176FEAE37040F00100704706
:100AB0004FEA410C7FEA6C5C02D150EA013C07D15D
:100AC0004FEA430C7FEA6C5CD6D152EA033CD3D0A8
:100AD0005DF8040B704700BF8446104662468C46A2
:100AE0001946634600E000BF01B5FFF7B7FF0028D5
:100AF00048BF10F1000F01BD4DF808EDFFF7F4FFFE
:100B00000CBF012000205DF808FB00BF4DF808ED88
:100B1000FFF7EAFF34BF012000205DF808FB00BFAB
:100B20004DF808EDFFF7E0FF94BF012000205DF8CD
:100B300008FB00BF4DF808EDFFF7CEFF94BF012082
:100B400000205DF808FB00BF4DF808EDFFF7C4FF7B
:100B500034BF012000205DF808FB00BF4FEA410CC4
:100B60007FEA6C5C02D150EA013C0AD14FEA430CA7
:100B70007FEA6C5C02D152EA033C02D14FF00000E4
:100B800070474FF0010070474A0011D212F5001271
:100B900011D20DD56FF47873B3EB62520ED44FEAD5
:100BA000C12343F0004343EA505323FA02F0704755
:100BB0004FF00000704750EA013002D14FF0FF3093
:100BC00070474FF0000070474FEA4102B2F1E04336
:100BD00024BFB3F5001CDCF1FE5C0DD901F0004C24
:100BE0004FEAC0024CEA5070B2F1004F40EB830074
:100BF00008BF20F00100704711F0804F21D113F1A0
:100C00003872BCBF01F00040704741F480114FEAD8
:100C10005252C2F11802C2F1200C10FA0CF320FA61
:100C200002F018BF40F001004FEAC1234FEAD3237E
:100C300003FA0CFC40EA0C0023FA02F34FEA4303E8
:100C4000CCE77FEA625307D150EA01331EBF4FF071
:100C5000FE4040F44000704701F0004040F0FE408C
:100C600040F40000704700BF53B94AB9002908BFDB
:100C700000281CBF4FF0FF314FF0FF3000F0BEB92D
:100C8000ADF1080C6DE904CE00F03CF8DDF804E0AD
:100C9000DDE9022304B0704738B500220023044682
:100CA0000D46FFF733FF28B920462946BDE83840F6
:100CB00000F00AB8204605F1004100F005F8404276
:100CC00061EB410138BD00BFD0B50C4B0022064698
:100CD0000F46FFF7A9FCFFF757FF0446FFF72AFC72
:100CE000074B0022FFF7A0FC02460B463046394670
:100CF000FFF7E2FAFFF748FF2146D0BD0000F03DC4
:100D00000000F0412DE9F047089D0F4604468C464F
:100D1000002B48D18A42164661D9B2FA82F34BB110
:100D2000C3F1200201FA03FC20FA02F29E4042EADB
:100D30000C0C9C404FEA164EB7B2BCFBFEF1220CE5
:100D40000EFB11CC42EA0C4201FB07F0904209D99C
:100D5000B21801F1FF3C80F0EE80904240F2EB804F
:100D600002393244121AA4B2B2FBFEF00EFB10227A
:100D700044EA024400FB07F7A74209D9341900F1FD
:100D8000FF3280F0DA80A74240F2D7803444023844
:100D900040EA0140E41B00211DB1DC400023C5E90D
:100DA0000043BDE8F0878B4206D90DB1C5E90001CB
:100DB00000210846BDE8F087B3FA83F1002948D145
:100DC000BB4202D3824200F20781841A67EB03021E
:100DD00001209446002DE4D0C5E9004CE1E7002A4B
:100DE00000F09280B2FA82F3002B40F0A8808A1AB9
:100DF0004FEA164E1FFA86FC0121200CB2FBFEF7CB
:100E00000EFB172240EA02420CFB07F0904207D982
:100E1000B21807F1FF3802D2904200F2E280474652
:100E2000121AA4B2B2FBFEF00EFB102244EA0244F6
:100E30000CFB00FCA44507D9341900F1FF3202D2A3
:100E4000A44500F2CB801046A4EB0C0440EA074016
:100E5000A2E7C1F120068B4022FA06FC4CEA030C03
:100E600007FA01F420FA06F3F7404FEA1C4923433E
:100E700000FA01F81FFA8CFEB7FBF9F01C0C09FB15
:100E8000107744EA074400FB0EF7A74202FA01F28A
:100E90000AD91CEB040400F1FF3A80F09B80A742C2
:100EA00040F2988002386444E41B9FB2B4FBF9F32B
:100EB00009FB134447EA044403FB0EFEA64509D987
:100EC0001CEB040403F1FF3780F08280A6457FD934
:100ED000023B644443EA0040A4EB0E04A0FB02E79B
:100EE000BC427346B94663D360D05DB1B8EB030230
:100EF00064EB090404FA06F622FA01F31E43CC401F
:100F0000C5E9006400214CE76208480842EAC17163
:100F10000B0C43EA00438AB242EA0342B3FBF6F108
:100F2000E407B4463746B6461F23B0FBF6F0D21BA3
:100F300041EA004161E7614614E7104628E7C3F142
:100F4000200120FA01F29E4027FA01F19F403A4326
:100F50004FEA164E1FFA86FCB1FBFEF70EFB171088
:100F6000110C41EA004107FB0CF8884504FA03F430
:100F70003AD9711807F1FF3001D288451FD8A1EB8B
:100F80000801B1FBFEF808FB0CF70EFB181192B23A
:100F900042EA0142BA422FD2B21808F1FF31C6D25A
:100FA000BA42C4D2A8F102013244C0E7F0459CD253
:100FB000BEEB020367EB0C070138B94695E7A6EBD9
:100FC00008084144B81EB1FBFEF808FB0CF7DCE74B
:100FD0003B467FE7504667E70846FBE63444023865
:100FE00032E7023F32441BE7A1EB08013846B1FB70
:100FF000FEF808FB0CF7C8E7414698E7704700BFCA
:1010000080B500AF11480AF0B1FA4FF48072104970
:101010000E480AF02AFB0346002B0BD00B480AF0BF
:10102000C3F90A480AF070F94FF48072084907487A
:101030000AF01BFB054BDB6B1B681A68034BDB6B71
:101040001B6822F008021A6000BF80BD240C00203B
:10105000FC0400202DE9B043B2B006AF7860786898
:10106000FFF7C8F8C7F8AC000BE0D7F8AC30013B8D
:101070007A68134400221A70D7F8AC30013BC7F8E5
:10108000AC30D7F8AC30002B0FD0D7F8AC30013BE8
:101090007A6813441B780D2BE7D0D7F8AC30013BAE
:1010A0007A6813441B780A2BDFD0D7F8AC30002BBA
:1010B00000F08881C44978680CF022FCC7F8A800C9
:1010C000D7F8A830002B00F0CB80C049D7F8A80093
:1010D000FFF786F80346002B40F0C280BA49002093
:1010E0000CF00EFCC7F8A400B74900200CF008FC77
:1010F000C7F8A000B44900200CF002FCC7F89C001F
:10110000B14900200CF0FCFBC7F89800D7F8A430D8
:10111000002B00F07781D7F8A030002B00F072810F
:10112000D7F89C30002B00F06D81D7F89830002B59
:1011300000F068810021D7F8A0000CF011FA87EDCB
:10114000250A0021D7F89C000CF00AFA87ED240A42
:101150000021D7F898000CF003FA87ED230A9C4988
:10116000D7F8A400FFF73CF80346002B1DD1994A9D
:10117000D7F894301360974AD7F890305360954A67
:10118000D7F88C309360944AD7F894301360924A21
:10119000D7F890305360904AD7F88C3093604FF472
:1011A00000518E4807F01DF832E08D49D7F8A400B1
:1011B000FFF716F80346002B11D18A4AD7F894306E
:1011C0001360884AD7F890305360864AD7F88C303D
:1011D00093604FF40051814807F003F818E082490A
:1011E000D7F8A400FEF7FCFF0346002B10D17F4A7E
:1011F000D7F8943013607D4AD7F8903053607B4A1B
:10120000D7F88C3093604FF40051744806F0E9FF32
:10121000774B93F84130DBB2202B40F0F380D7F8C6
:101220009400FFF7A9F902460B4607F10C00CDE93F
:101230000023D7F8A4306F4A40210CF0B9FAC7F860
:101240008800D7F88830002B40F3DC80D7F888304E
:101250009AB207F10C010A2365480AF0D7F8D1E0E9
:10126000D7F8A830002B00F099806349D7F8A80080
:10127000FEF7B6FF0346002B40F090805249002055
:101280000CF03EFBC7F884004F4900200CF038FBFF
:10129000C7F880004C4900200CF032FBF8674A493F
:1012A00000200CF02DFBB867474900200CF028FB0C
:1012B0007867D7F88430002B00F0A680D7F880300C
:1012C000002B00F0A180FB6F002B00F09D80BB6F16
:1012D000002B00F099807B6F002B00F0958000219F
:1012E000D7F884000CF03CF987ED1C0A0021D7F8F0
:1012F00080000CF035F987ED1B0A0021F86F0CF027
:101300002FF987ED1A0A0021B86F0CF029F987ED43
:10131000190A0021786F0CF023F987ED180A97ED70
:10132000182AD7ED191A97ED1A1AD7ED1B0A97ED5F
:101330001C0A00F0ADFC4FF40051284806F051FFA4
:101340002B4B93F84130DBB2202B5DD1386FFFF788
:1013500013F904460D46F86EFFF70EF980468946EC
:10136000786EFFF709F902460B4607F10C00CDE94C
:101370000423CDE90289CDE90045204A50210CF033
:1013800017FAF865FB6D002B3EDDFB6D9AB207F195
:101390000C010A2316480AF039F835E0D7F8A830CE
:1013A000002B32D01649D7F8A800FEF719FF0346E4
:1013B000002B2AD100F048FC4FF40051074806F0FA
:1013C00010FF22E000BF20E0500D0108540D01087D
:1013D000580D01084C02002088020020000802403D
:1013E0005C0D0108C4020020640D010810020020F9
:1013F000240C0020680D0108800D0108880D0108EB
:10140000AC0D010800BF00E000BFB037BD46BDE82D
:10141000B08300BF80B582B000AF0346FB71FB799B
:101420000D2B36D0FB790A2B1AD11C4B1B881A4680
:101430001B4B002199541B4B1B78DBB2002B0BD1AB
:101440008022174918480CF047FA174B002283F8FE
:101450007F20144B01221A70104B00221A8019E0D1
:10146000FB791F2B16D9FB797E2B13D80B4B1B88CE
:101470007E2B0AD8094B1B885A1C91B2074A11804F
:101480001946074AFB79535404E0044B00221A80A2
:1014900000E000BF0837BD4680BD00BF7C060020CD
:1014A000FC050020000700208006002080B500AF6A
:1014B000FFF7A6FD00BF80BD80B5A0B000AF0E4B0A
:1014C0001B78DBB2002B13D072B600BF3B468022E4
:1014D0000A4918460CF000FA002387F87F30064BC3
:1014E00000221A7062B600BF3B461846FFF7B2FDF5
:1014F00000BF8037BD4680BD000700208006002069
:1015000080B584B000AF78600B467B807B681B6839
:101510000C4A934211D10023FB8108E0FB890A4A5F
:10152000D35C1846FFF776FFFB890133FB81FA890C
:101530007B889A42F2D3FFF763FD00BF1037BD46A8
:1015400080BD00BF00100140FC04002080B584B0C5
:1015500000AF78607B681B680A4A93420DD10A4845
:101560000AF004F87B681B681B68FB607B681B68DB
:101570005B68FB60FB68FFF743FD00BF1037BD46AB
:1015800080BD00BF00100140240C00202DE9B04FA9
:101590008AB008AF1F4B93F84130DBB2202B34D117
:1015A0001D4BDB681846FEF7E7FF04460D461A4B55
:1015B0001B691846FEF7E0FF80468946164B5B69BB
:1015C0001846FEF7D9FF82468B46144B1B68184617
:1015D000FEF7D2FF02460B46CDE90623CDE904AB68
:1015E000CDE90289CDE900450D4A80210D480CF076
:1015F000DFF878607B68002B08DD7B689AB20A23ED
:101600000849044809F002FF00E000BF0837BD4662
:10161000BDE8B08F240C0020340100200803002016
:10162000B40D01080407002080B485B000AF87ED39
:10163000030AC7ED020A87ED011A97ED037AD7ED89
:10164000017AB4EEE77AF1EE10FA01DD7B680BE087
:1016500097ED037AD7ED027AB4EEE77AF1EE10FA5D
:1016600001D5BB6800E0FB6807EE903AB0EE670A70
:101670001437BD465DF8047B7047000080B582B02A
:1016800000AF87ED010AD7ED017AB7EE087AF4EEE4
:10169000C77AF1EE10FA07DDD7ED017A9FED0A7AED
:1016A00067EE877AC7ED017AB7EE001ADFED070A19
:1016B00097ED010AFFF7B8FFF0EE407AB0EE670A47
:1016C0000837BD4680BD00BF8180803B0000000020
:1016D00080B500AF0C4801F088F80C4801F085F89F
:1016E0000B4801F082F80B4801F07FF80A4B4FF0ED
:1016F00000021A62084B4FF000025A62064B0022A9
:1017000083F8352000BF80BD000000203C00002091
:1017100078000020B40000208407002080B500AFCE
:10172000054B002283F83420034B044A1A63FFF769
:10173000CFFF00BF80BD00BF840700209A99193EEB
:1017400080B500AF0C4B1B680B4A93600A4B5B687B
:10175000094AD360084B012283F83520074801F07D
:1017600044F8074801F041F8064801F03EF8064801
:1017700001F03BF800BF80BD84070020000000207E
:101780003C00002078000020B400002080B582B02A
:1017900000AF87ED010AD7ED017AF5EEC07AF1EEE0
:1017A00010FA20D9124BD3ED0C7AB2EE047AF4EE93
:1017B000C77AF1EE10FA09D50D4B93ED0C7AD7EDFF
:1017C000017A77EE277A0A4BC3ED0C7A084BD3EDFA
:1017D0000C7A9FED087AF4EEC77AF1EE10FA03DD89
:1017E000FFF79CFF00E000BF0837BD4680BD00BF8B
:1017F000840700209A99193E80B58CB000AF87ED20
:10180000010AD7ED017A9FED667AF4EEC77AF1EE20
:1018100010FA01D5634B7B60634B93ED027A624B08
:10182000D3ED007A77EE677AB7EE081AFFEE080A72
:10183000B0EE670AFFF7F8FE87ED0B0A5A4B93EDFF
:10184000037A594BD3ED017A77EE677AB7EE081A2F
:10185000FFEE080AB0EE670AFFF7E6FE87ED0A0A18
:1018600097ED011ADFED510A97ED0B0A504800F091
:10187000E3FF97ED011ADFED4D0A97ED0A0A4D4897
:1018800000F0DAFF4A4BD3ED0E7A474B93ED067A20
:1018900097ED011AF0EE470AB0EE670A464801F0EC
:1018A0008FF8444BD3ED0E7A3F4B93ED077A97EDCB
:1018B000011AF0EE470AB0EE670A404801F080F8DE
:1018C0003F4BD3ED057A9FED3F7A67EE877AC7ED00
:1018D000097A97ED090A0EF041F987ED080A97EDAC
:1018E000090A0EF07BF987ED070A334B9B6BBB614E
:1018F000324B9B6B7B6197ED087AD7ED067A27EE2A
:10190000277AD7ED076AD7ED057A66EEA77A77EEE4
:10191000277AC7ED047AD7ED077AB1EE677AD7ED6B
:10192000067A27EE277AD7ED086AD7ED057A66EEB4
:10193000A77A77EE277AC7ED037A204BD3ED0B7A9F
:10194000F1EE677A1D4B93ED0B7AB0EE471AF0EE8D
:10195000670A97ED030AFFF767FEF0EE407A124B35
:10196000C3ED087AD7ED047AB1EE677A124BD3ED66
:101970000B7AF1EE677A104BD3ED0B6AB0EE661A74
:10198000F0EE670AB0EE470AFFF74EFEF0EE407A3F
:10199000054BC3ED097A00BF3037BD4680BD00BF9F
:1019A00017B7D13817B7D1388407002000000000DE
:1019B000000000203C00002078000020B40000203F
:1019C0003401002035FA8E3C80B487B000AF87ED3B
:1019D000030AB8607960BB68D3ED007A97ED037AAB
:1019E00037EE677ABB680433D3ED007A37EE677A57
:1019F000BB680833D3ED007A77EE677A7B68C3ED76
:101A0000007ABB68D3ED007A97ED037A37EE677AF8
:101A1000BB680433D3ED007A37EE277ABB6808330E
:101A2000D3ED007A7B68043377EE277AC3ED007A32
:101A3000BB6893ED007AD7ED037A37EE277ABB685F
:101A40000433D3ED007A37EE277ABB680833D3ED41
:101A5000007A7B68083377EE677AC3ED007ABB685B
:101A600093ED007AD7ED037A37EE277ABB6804331B
:101A7000D3ED007A37EE677ABB680833D3ED007A8E
:101A80007B680C3377EE277AC3ED007A00237B6105
:101A900028E07B699B007A681344D3ED007A9FEDC0
:101AA000167AF4EEC77AF1EE10FA05DD7B699B0039
:101AB0007A681344114A1A607B699B007A68134460
:101AC000D3ED007A9FED0E7AF4EEC77AF1EE10FABC
:101AD00005D57B699B007A6813440A4A1A607B69C2
:101AE00001337B617B69032BD3DD00BF00BF1C3753
:101AF000BD465DF8047B70470040E7440040E74482
:101B0000008089440080894480B483B000AF214BB9
:101B10001B78002B27D000237B6010E01E4A7B68D7
:101B20009B001344D3ED007AFCEEE77A17EE901A8F
:101B30001A4A7B6842F823107B6801337B607B681C
:101B4000032BEBDD164A154B5B685363144A134BAA
:101B50001B689363134A114BDB685363114A0F4BA5
:101B60009B6893630FE00E4B4FF47A725A630C4BF1
:101B70004FF47A729A630B4B4FF47A725A63094BA3
:101B80004FF47A729A6300BF0C37BD465DF8047B50
:101B9000704700BF500A0020780A0020880A002001
:101BA000000400400008004080B500AF002110484C
:101BB00008F030FE04210E4808F02CFE00210D48EC
:101BC00008F028FE04210B4808F024FE0A4B4FF4CD
:101BD0007A725A63084B4FF47A729A63074B4FF448
:101BE0007A725A63054B4FF47A729A6300BF80BDD4
:101BF000940B0020DC0B0020000400400008004093
:101C000080B500AF0A4800F0F0FD0A4800F0EDFD95
:101C1000094800F0EAFD094800F0E7FD084800F037
:101C2000E4FD084800F0E1FD00F00EF800BF80BDC3
:101C300098010020D4010020100200204C02002056
:101C400088020020C4020020B0B58EB000AF3B4631
:101C50003822002118460BF025FE0B4B1D463C4652
:101C60000FCC0FC50FCC0FC50FCC0FC594E80300E8
:101C700085E80300054B00221A70FFF729FD00BF1D
:101C80003837BD46B0BD00BF84070020BC07002028
:101C900080B58CB000AF87ED050AC7ED040A87ED6B
:101CA000031AC7ED021A87ED012A97ED020AFFF722
:101CB000E5FCF0EE407A714BC3ED0B7A6F4AFB689E
:101CC0009362D7ED017A9FED6E7AF4EEC77AF1EE6A
:101CD00010FA24D4D7ED017A9FED6A7AF4EEC77A30
:101CE000F1EE10FA1BDCD7ED037A9FED677AF4EE84
:101CF000C77AF1EE10FA12D4D7ED037AB2EE047A75
:101D0000F4EEC77AF1EE10FA09DC5C4BD3ED0B7AF6
:101D1000B5EE007AF4EEC77AF1EE10FA02D5FFF7CD
:101D2000FDFCA8E0B1EE001AF9EE000A97ED050AF5
:101D3000FFF77AFC87ED0B0AB1EE001AF9EE000A04
:101D400097ED040AFFF770FC87ED0A0A4F4B1B78EA
:101D5000002B09D1494AFB6A1361484ABB6A5361A7
:101D60004A4B01221A7025E0444B93ED047A434B11
:101D7000D3ED047AD7ED0B6A76EEE77ADFED446AAD
:101D800067EEA67A77EE277A3C4BC3ED047A3B4B9D
:101D900093ED057A394BD3ED057AD7ED0A6A76EEE5
:101DA000E77ADFED3B6A67EEA67A77EE277A334B68
:101DB000C3ED057A374BD3ED057A9FED377A67EEA1
:101DC000877AC7ED097A97ED090A0DF0C7FE87ED0E
:101DD000080A97ED090A0DF001FF87ED070A274B66
:101DE00093ED047AD7ED087A27EE277A234BD3EDCB
:101DF000056AD7ED077A66EEA77A77EE677A1F4B0A
:101E0000C3ED067A1D4B93ED047AD7ED077A27EEE2
:101E1000277A1A4BD3ED056AD7ED087A66EEA77AD2
:101E200077EE277A154BC3ED077A144B93ED007AC2
:101E3000124BD3ED066AD7ED017A66EEA77A77EEFC
:101E4000277A0E4BC3ED007A0C4B93ED017A0B4BC6
:101E5000D3ED076AD7ED017A66EEA77A77EE277A97
:101E6000064BC3ED017A054B4FF000021A63034B9A
:101E7000012283F834203037BD4680BD840700201E
:101E80006F12833ACDCCCC3DCDCC4C3DBC0700206D
:101E90003333B33E3401002035FA8E3C000000009D
:101EA00080B58AB000AFAA4B9B69BB61D7ED067ABB
:101EB0009FEDA87AF4EEC77AF1EE10FA01DDA64B99
:101EC000BB61D7ED067A9FEDA57AF4EEC77AF1EE05
:101ED00010FA01D5A24BBB6197ED060AFFF756FC3D
:101EE000A04B1B68B3F5FA6F03D99F4B9F4A1A604A
:101EF00011E09C4B1B68B3F57A7F03D29A4B9C4A46
:101F00001A6008E0974B1B6807EE903AF8EE677A84
:101F1000954BC3ED007A974B1B6840F2DC5293421D
:101F200094BF01230023DBB2FB74934B1B78FA7C34
:101F30009A420AD0914AFB7C13708F4AFB7C137043
:101F40008F4B01221A70FFF7C3FB8E4B1B6840F2C8
:101F5000DC52934225D98C4B1B78012B27D1824B25
:101F6000D3ED007A9FED897AF4EEC77AF1EE10FA9C
:101F70001DD5854B00221A70854B01221A70FFF780
:101F80003FFE844B4FF000021A60824B4FF000027C
:101F90005A60814B5B697F4A9360794B01221A70CA
:101FA00005E0794B01221A70794B00221A707B4BA5
:101FB0001B6807EE903AF8EE677A9FED797A77EE34
:101FC000C77AC7ED097A774B1B6807EE903AF8EEAF
:101FD000677A9FED737A77EEC77AC7ED087A724B0E
:101FE0001B6807EE903AF8EE677A9FED6D7A77EE10
:101FF000C77AC7ED077AD7ED077AF0EEE77AB2EE47
:102000000E7AF4EEC77AF1EE10FA02D54FF0000323
:10201000FB61D7ED097AF0EEE77AB1EE047AF4EEDF
:10202000C77AF1EE10FA02D54FF000037B62D7EDCC
:10203000087AF0EEE77AB1EE047AF4EEC77AF1EEC0
:1020400010FA02D54FF000033B624C4B1B78002B7B
:1020500040F02681D7ED097AF0EEE77A9FED537ACA
:10206000F4EEC77AF1EE10FA0ADCD7ED087AF0EE5A
:10207000E77A9FED4E7AF4EEC77AF1EE10FA01DDC1
:10208000012300E00023BB74D7ED097AF0EEE77A74
:10209000B3EE047AF4EEC77AF1EE10FA0CD5D7ED70
:1020A000087AF0EEE77AB3EE047AF4EEC77AF1EE4E
:1020B00010FA01D5012300E000237B74D7ED097AE3
:1020C0009FED3B7A67EE877A324BC3ED007AD7ED0E
:1020D000087AF1EE677A9FED367A67EE877A2D4BB4
:1020E000C3ED017A334B93F83430002B64D0314B7D
:1020F00093F83530002B02D17B7C002B5CD0BB7C6D
:10210000002B02D0FFF7E4FA58E02A4B93F8353061
:10211000002B01D1FFF714FB97ED060AFFF76CFBCC
:102120001C4B93ED007A234BD3ED087A77EE277A98
:10213000184BC3ED007A174B93ED017A1D4BD3ED8D
:10214000097A77EE277A134BC3ED017A36E000BFA8
:10215000E40900200AD7233C0AD7233C6F12833AB4
:102160006F12833AE40A0020040300200000FA44BE
:1021700000007A44F00A0020BD070020240A002055
:10218000BE070020EC0A00200003002000C08F449E
:10219000500A0020600A002034010020DC0A0020E0
:1021A0000080BB44E00A0020E80A002000000C4246
:1021B0008FC2753D84070020FFF78AFA314BD3EDBB
:1021C000007AB3EE091AFBEE090AB0EE670AFFF7D0
:1021D0002BFAF0EE407A2B4BC3ED007A294BD3ED6E
:1021E000017AB3EE091AFBEE090AB0EE670AFFF7AF
:1021F0001BFAF0EE407A234BC3ED017A97ED077A94
:10220000DFED216AC7EE267A9FED207A67EE877AA6
:1022100097ED067A67EE277AC7ED037A194B93EDAF
:10222000027AD7ED037A77EE277A164BC3ED027A5E
:10223000144BD3ED027A9FED167AF4EEC77AF1EEE5
:1022400010FA09DD0F4BD3ED027A9FED127A77EE8B
:10225000C77A0C4BC3ED027A0A4BD3ED027A9FED9D
:102260000E7AF4EEC77AF1EE10FA38D5054BD3EDBD
:10227000027A9FED087A77EE877A024BC3ED027AF5
:102280002DE000BF600A00200000FA430000164362
:10229000000034430000B443000034C3CDCC4C3EB6
:1022A000FFF716FAD7ED097A1FED047A67EE877A01
:1022B000974BC3ED007AD7ED087AF1EE677A9FED80
:1022C000957A67EE877A924BC3ED017AD7ED077A5C
:1022D0009FED907A67EE877A8D4BC3ED027A8E4B35
:1022E0001B6840F2B53293422DD88C4B1B78002BE3
:1022F00029D18B4B00221A708A4B4FF000021A60D2
:10230000884B4FF000025A60FFF7E2F9864BD3ED9D
:10231000007A9FED807A77EEC77A834BC3ED007A1F
:10232000814BD3ED007A9FED817AF4EEC77AF1EE1E
:1023300010FA08D5794B01221A707D4B00221A70D1
:10234000794B7C4A1A60754B1B78002B40F0D68184
:10235000754BD3ED007A9FED787AF4EEC77AF1EE03
:1023600010FA3BD5754BD3ED067A9FED757A67EE83
:10237000877A724BC3ED067A724BD3ED067A9FEDE6
:10238000707A67EE877A6F4BC3ED067A6E4BD3EDAA
:10239000067A9FED6B7A67EE877A6B4BC3ED067A10
:1023A0006A4BD3ED067A9FED667A67EE877A674BC4
:1023B000C3ED067A664BD3ED067A9FED617A67EE40
:1023C000877A634BC3ED067A624BD3ED067A9FEDB5
:1023D0005C7A67EE877A5F4BC3ED067A504B1B78C9
:1023E000002B00F0C180012B40F0AE815A4B1B78CE
:1023F000002B0ED0464B1B68544A5362444B5B681B
:10240000534A5362424B9B68524A5362524B0022DA
:102410001A70524B1B681846FEF7AEF83AA3D3E980
:102420000023FEF701F902460B4610461946FEF757
:10243000CBFB03463B60494B5B681846FEF79CF8B4
:1024400031A3D3E90023FEF7EFF802460B4610460E
:102450001946FEF7B9FB03467B60404B9B68184664
:10246000FEF78AF828A3D3E90023FEF7DDF8024639
:102470000B4610461946FEF7A7FB0346BB60244BEC
:10248000D3ED007A97ED007A97ED061AF0EE470A41
:10249000B0EE670A2D4800F093FA1D4BD3ED017A98
:1024A00097ED017A97ED061AF0EE470AB0EE670A4B
:1024B000274800F085FA164BD3ED027A97ED027AA1
:1024C00097ED061AF0EE470AB0EE670A214800F0D1
:1024D00077FA1E4B9B6B224A13601D4B9B6B204A65
:1024E00053601C4B9B6B1E4A93600F4BD3ED007ADD
:1024F0001C491B48B0EE670AFFF766FAFFF704FBBA
:1025000022E100BFAFF30080F8C1631ADCA54C40A4
:102510006C0A0020CDCC4C3EE40A002000030020D1
:10252000240A0020600A002004030020008089445F
:10253000500A002000007A4400C08F444C02002062
:1025400048E17A3F88020020C40200209801002060
:10255000D401002010020020BE070020E409002062
:10256000540A0020780A00207B4BDB683B607A4BE2
:102570001B697B60784B5B69BB60784BD3ED007A5D
:1025800097ED007A97ED061AF0EE470AB0EE670A6B
:10259000734800F051F9714BD3ED017A97ED017A50
:1025A00097ED061AF0EE470AB0EE670A6D4800F0A4
:1025B00043F96A4BD3ED027A97ED027A97ED061A4A
:1025C000F0EE470AB0EE670A674800F035F9644B51
:1025D0009B6B664A1360634B9B6B644A5360624B10
:1025E0009B6B624A9360624B1B78002B0ED05F4B53
:1025F0001B68604A53625D4B5B685F4A53625B4B8A
:102600009B685E4A53625A4B00221A705C4B1B68EF
:102610001846FDF7B1FF4EA3D3E90023FEF704F8F7
:1026200002460B4610461946FEF7CEFA03463B60BB
:10263000534B5B681846FDF79FFF45A3D3E9002382
:10264000FDF7F2FF02460B4610461946FEF7BCFAAC
:1026500003467B604A4B9B681846FDF78DFF3CA301
:10266000D3E90023FDF7E0FF02460B46104619466A
:10267000FEF7AAFA0346BB603C4BD3ED007A97ED18
:10268000007A97ED061AF0EE470AB0EE670A39486D
:1026900000F096F9354BD3ED017A97ED017A97ED7D
:1026A000061AF0EE470AB0EE670A334800F088F9E0
:1026B0002E4BD3ED027A97ED027A97ED061AF0EEE3
:1026C000470AB0EE670A2D4800F07AF9294B9B6B58
:1026D0002C4A1360284B9B6B2A4A5360274B9B6BF9
:1026E000284A9360284BD3ED007A28492548B0EE5C
:1026F000670AFFF769F9FFF707FA25E000237B6116
:102700000EE0224A7B699B001344214A1A60214A49
:102710007B694FF47A7142F823107B6901337B6146
:102720007B69032BEDDDFFF7EFF9FFF769FA0F4B3C
:102730004FF000021A600D4B4FF000025A600B4B35
:102740004FF000029A60FFE700BF2837BD4680BD0A
:10275000F8C1631ADCA54C4034010020600A002057
:102760004C02002088020020C40200206C0A0020D5
:10277000BE07002098010020D40100201002002094
:10278000E4090020540A002004030020780A0020F5
:1027900000007A44880A002080B485B000AF87ED3D
:1027A000030AC7ED020A87ED011A97ED037AD7ED08
:1027B000017AB4EEE77AF1EE10FA01DD7B680BE006
:1027C00097ED037AD7ED027AB4EEE77AF1EE10FADC
:1027D00001D5BB6800E0FB6807EE903AB0EE670AEF
:1027E0001437BD465DF8047B704780B483B000AFFA
:1027F00078607B684FF00002DA617B684FF000027E
:102800001A617B684FF000025A617B684FF000024A
:102810009A617B684FF000029A637B684FF0000278
:102820001A627B684FF000025A6200BF0C37BD4647
:102830005DF8047B7047000080B586B000AFF8609B
:1028400087ED020AC7ED010A87ED001AD7ED007A7D
:102850009FED567AF4EEC77AF1EE10FA01D5544B9B
:102860003B6097ED027AD7ED017A77EE677AFB68E5
:10287000C3ED047AFB68D3ED047A9FED4E7AF4EE53
:10288000C77AF1EE10FA0ADDFB68D3ED047A9FED0A
:102890004A7A77EEC77AFB68C3ED047A13E0FB68E7
:1028A000D3ED047A9FED457AF4EEC77AF1EE10FA93
:1028B00009D5FB68D3ED047A9FED3F7A77EE877AEE
:1028C000FB68C3ED047AFB6893ED007AFB68D3EDF7
:1028D000047A67EE277AC7ED057AFB68D3ED047AB0
:1028E000F0EEE77AB3EE047AF4EEC77AF1EE10FA7E
:1028F0002BD5FB6893ED067AFB68D3ED016AFB6884
:10290000D3ED047A66EEA76AD7ED007A66EEA77A71
:1029100077EE277AFB68C3ED067AFB6893ED067ABB
:10292000FB68D3ED0C7AF1EE677AFB68D3ED0C6AA5
:10293000B0EE661AF0EE670AB0EE470AFFF72CFF1A
:10294000F0EE407AFB68C3ED067AFB6893ED067AF9
:10295000D7ED057A77EE277AFB68C3ED0E7AFB6830
:1029600093ED0E7AFB68D3ED0B7AF1EE677AFB6894
:10297000D3ED0B6AB0EE661AF0EE670AB0EE470AC6
:10298000FFF70AFFF0EE407AFB68C3ED0E7AFB68B2
:102990001A69FB685A61FB687A681A62FB68BA6850
:1029A0005A6200BF1837BD4680BD00BF17B7D13887
:1029B00017B7D138000034430000B443000034C3DB
:1029C00080B58AB000AFF86087ED020AC7ED010A52
:1029D00087ED001AD7ED007A9FED7A7AF4EEC77A88
:1029E000F1EE10FA01D5784B3B6097ED027AD7ED06
:1029F000017A77EE677AFB68C3ED047AFB6893EDA2
:102A0000007AFB68D3ED047A67EE277AC7ED097A7E
:102A1000FB6893ED067AFB68D3ED016AFB68D3EDA2
:102A2000047A66EEA76AD7ED007A66EEA77A77EEAB
:102A3000277AFB68C3ED067AFB6893ED067AFB689C
:102A4000D3ED0C7AF1EE677AFB68D3ED0C6AB0EE49
:102A5000661AF0EE670AB0EE470AFFF79DFEF0EE49
:102A6000407AFB68C3ED067AFB68D3ED087A97EDF0
:102A7000017A77EE677AC7ED087AD7ED086A97EDA5
:102A8000007AC6EE877AB1EE677AFB68D3ED027AF8
:102A900067EE277AC7ED077AFB6893ED0A7AFB6841
:102AA000D3ED077A27EE277AFB68D3ED0A7AF7EEA3
:102AB000006A76EEE76AD7ED077A66EEA77A77EED8
:102AC000277AFB68C3ED077AFB6893ED077AFB680A
:102AD000D3ED0D7AF1EE677AFB68D3ED0D6AB0EEB7
:102AE000661AF0EE670AB0EE470AFFF755FEF0EE01
:102AF000407AFB68C3ED077AFB68D3ED097A97ED5E
:102B0000027A77EE677AC7ED067AD7ED066AD7EDD7
:102B1000007A86EEA77AFB68D3ED037A67EE277A10
:102B2000C7ED057AFB68D3ED0B7A9FED287A67EE47
:102B3000877AC7ED047AD7ED047AF1EE677A97EDDC
:102B4000041AF0EE670A97ED050AFFF725FE87EDF8
:102B5000050AFB6893ED067AD7ED097A37EE277AF6
:102B6000FB68D3ED077A37EE277AD7ED057A77EE53
:102B7000277AFB68C3ED0E7AFB6893ED0E7AFB684B
:102B8000D3ED0B7AF1EE677AFB68D3ED0B6AB0EE0A
:102B9000661AF0EE670AB0EE470AFFF7FDFDF0EEA9
:102BA000407AFB68C3ED0E7AFB681A69FB685A61CC
:102BB000FB687A681A62FB68BA685A6200BF2837F5
:102BC000BD4680BD17B7D13817B7D138CDCC4C3EF4
:102BD00080B582B000AF00237B601F4B1B6B1E4A89
:102BE00043F4001313631C4B1B6B03F400137B6053
:102BF0007B6800233B60184B1B6B174A43F4800330
:102C00001363154B1B6B03F480033B603B6800228E
:102C100000210B2004F0BFFB0B2004F0D8FB0022A6
:102C20000021102004F0B7FB102004F0D0FB00229C
:102C30000021392004F0AFFB392004F0C8FB00224A
:102C400000213A2004F0A7FB3A2004F0C0FB00BFAB
:102C50000837BD4680BD00BF0038024080B58AB04D
:102C600000AF07F1140300221A605A609A60DA601C
:102C70001A6100233B61314B1B6B304A43F0040364
:102C800013632E4B1B6B03F004033B613B69002372
:102C9000FB602A4B1B6B294A43F080031363274BCD
:102CA0001B6B03F08003FB60FB680023BB60234BBE
:102CB0001B6B224A43F001031363204B1B6B03F091
:102CC0000103BB60BB6800237B601C4B1B6B1B4A72
:102CD00043F002031363194B1B6B03F002037B6089
:102CE0007B6800224FF40051154805F061FA01227B
:102CF0001021144805F05CFA4FF400537B61012366
:102D0000BB610023FB6100233B6207F114031946FA
:102D10000B4804F0E5FF10237B610123BB61002316
:102D2000FB6103233B6207F114031946054804F0D5
:102D3000D7FF00BF2837BD4680BD00BF0038024026
:102D4000000802400000024080B500AF124B134A59
:102D50001A60114B124A5A600F4B00229A600E4BB8
:102D60000022DA600C4B4FF480421A610A4B0022B9
:102D70005A61094B00229A61074B0022DA61064B27
:102D800000221A62044805F047FA0346002B01D0DE
:102D900000F017FD00BF80BDC007002000540040B8
:102DA000801A060080B500AF124B134A1A60114B0F
:102DB000124A5A600F4B00229A600E4B0022DA60D2
:102DC0000C4B4FF480421A610A4B00225A61094BA6
:102DD00000229A61074B0022DA61064B00221A6238
:102DE000044805F019FA0346002B01D000F0E9FC75
:102DF00000BF80BD1408002000580040A0860100DC
:102E000080B58CB000AF786007F11C0300221A6017
:102E10005A609A60DA601A617B681B68524A934272
:102E20005CD10023BB61514B1B6B504A43F0020342
:102E300013634E4B1B6B03F00203BB61BB694FF482
:102E40004073FB6112233B6200237B620323BB625E
:102E50000423FB6207F11C031946454804F040FFB8
:102E600000237B61414B1B6C404A43F40013136405
:102E70003E4B1B6C03F400137B617B693D4B3E4A68
:102E80001A603C4B4FF000725A603A4B00229A6035
:102E9000384B0022DA60374B4FF480621A61354BB1
:102EA00000225A61334B00229A61324B0022DA61D0
:102EB000304B4FF480321A622E4B00225A622D485A
:102EC00004F0AEFA0346002B01D000F07AFC7B68D8
:102ED000284A9A63274A7B68936341E07B681B68B2
:102EE000264A93423CD100233B61204B1B6B1F4A77
:102EF00043F0020313631D4B1B6B03F002033B61A2
:102F00003B694FF48063FB6112233B6200237B62C9
:102F10000323BB620423FB6207F11C031946144818
:102F200004F0DEFE0823FB6112233B6200237B6278
:102F30000323BB620923FB6207F11C0319460C48FB
:102F400004F0CEFE0023FB60084B1B6C074A43F4E1
:102F500080031364054B1B6C03F48003FB60FB6868
:102F600000BF3037BD4680BD0054004000380240ED
:102F70000004024068080020106002400058004031
:102F800080B400AF0E4B40F2DC521A600D4B40F2A1
:102F9000DC521A600C4B40F2DC521A600B4B4FF4BF
:102FA0007A721A600A4B4FF47A721A60094B4FF426
:102FB0007A721A6000BFBD465DF8047B704700BF9F
:102FC000DC0A0020E00A0020E80A0020E40A0020D1
:102FD000EC0A0020F00A002080B500AFFFF7D0FF18
:102FE0000F4B00221A800F4B00221A600E4B00225A
:102FF0001A600E4B00221A700D4B00221A600D4B06
:1030000000221A600C4B00221A600C4B00221A603E
:1030100040220B490B4808F084FA00BF80BD00BF76
:10302000080900202C090020300900203409002064
:10303000380900203C0900204009002044090020F4
:10304000C80800206C0C002080B586B000AF034695
:10305000FB71554B1B78002B0ED1FB79202B40F0D8
:103060009E80514B1B785A1CD1B24F4A11701946A1
:103070004E4AFB79535492E04B4B1B78012B11D1F4
:10308000FB79402B0AD1484B1B785A1CD1B2464AD7
:1030900011701946454AFB79535480E0424B002297
:1030A0001A707CE0404B1B785A1CD1B23E4A11701A
:1030B00019463E4AFB7953543B4B1B78202B6ED16B
:1030C0004FF6FF73FB8200233B610AE0374A3B69FE
:1030D00013441B781A46FB8A9B1AFB823B69013317
:1030E0003B613B691D2BF1DD304B9B7F1AB22F4BAF
:1030F000DB7F1BB21B021BB213431BB2FB81FA8A9C
:10310000FB899A4248D1294B9B781A46274BDB789A
:103110001B0213431A46264B1A60244B1B791A468E
:10312000224B5B791B0213431A46224B1A601F4B3A
:103130009B791A461D4BDB791B0213431A461E4B23
:103140001A601A4B1B7A1A46184B5B7A1B02134300
:103150001A461A4B1A60154B9B7A1A46134BDB7AA8
:103160001B0213431A46164B1A60104B1B7B1A4660
:103170000E4B5B7B1B0213431A46124B1A6003F083
:10318000DBFF0346104A1360104B1B6801330F4AE4
:1031900013600F4B01221A70034B00221A7000BFFC
:1031A0001837BD4680BD00BF0A0900200C09002069
:1031B000DC0A0020E00A0020E40A0020E80A0020DF
:1031C000EC0A0020F00A00202C0900203009002021
:1031D0003409002080B582B000AF254BDB6B1B6843
:1031E0005B689BB2C3F140033B80224B1B883A884B
:1031F0009A4239D01F4B1B883A889A4211D91D4BED
:103200001B88FB8008E0FB881B4AD35C1846FFF74D
:103210001BFFFB880133FB80FA883B889A42F2D37C
:103220001FE0144B1B88BB8008E0BB88124AD35CAC
:103230001846FFF709FFBB880133BB80BB883F2BD3
:10324000F3D900237B8008E07B880B4AD35C1846C7
:10325000FFF7FAFE7B8801337B807A883B889A42AD
:10326000F2D3044A3B88138000BF0837BD4680BDB7
:103270006C0C002008090020C808002080B584B02C
:1032800000AF78607B681B68134A934220D17B684B
:103290001B681B68FB607B681B685B68FB60FB68E6
:1032A0000E4B1B6801330D4A136003F045FF0346C4
:1032B0000B4A13600B4B00221A700B4B00221A8032
:1032C0000A4808F053F940220949084808F029F94A
:1032D00000BF1037BD4680BD004400403C090020BF
:1032E000400900200A090020080900206C0C002079
:1032F000C808002080B588B002AF03F0B7FE00F028
:10330000DBF9FFF7ABFCFFF763FC03F073FA03F0A4
:10331000BDFA03F03DFB03F03FF903F091FC03F02D
:1033200065FCFFF711FDFFF73DFD03F0B3FC4FF423
:103330000051A24804F055FFC82003F009FF4FF4E4
:1033400000519E4804F04DFFC82003F001FF4FF4E8
:1033500000519A4804F045FF322003F0F9FE03F0D3
:1033600097F8FFF739FEFEF71FFC954807F09EF926
:1033700001F086F9934B1B78DBB2002B04D032208E
:1033800003F0E6FE00F0CEFE8F4800F025FB8F48EC
:1033900002F04AFADFED8E0AB0EE040A8B4802F022
:1033A00087FAFEF72DFCFEF781F88A4B00221A708F
:1033B000894B01221A70894B894A1A60894B4FF058
:1033C00000021A60874B4FF000025A60854B4FF0A5
:1033D00000029A60844B4FF000021A60824B4FF05B
:1033E00000025A60804B4FF000029A607F4B804A87
:1033F0009A614FF080435B6A7C4AD3614FF080430F
:103400005B6A7B610023FB7403F096FEB8604FF0AB
:1034100080435B6A7B60B86803F096F8FFF7DAFEDA
:10342000FEF74AF8734B1B68BA68D31A632B04D9AA
:10343000FEF7ACF86F4ABB6813607A687B69D31AF1
:10344000B3F57A7FE0D37A687B69D31AFB607B6837
:103450007B61694AFB681360684B1B68FA689A4293
:1034600002D9664AFB681360FB68B3F57A7F04D91A
:10347000634B1B680133624A1360FB6842F21072AF
:10348000934202D94FF47A73FB60FB6807EE903ADF
:10349000F8EE677A9FED5B7A67EE877A534BC3ED60
:1034A000067A524A7B68D36100F03CFF00F02EFFA1
:1034B00003461A46544B1A70FB7C0133FB74FB7CA9
:1034C000132B03D90023FB7401F068F9FB7C002B5C
:1034D00006D101F057F90346002B01D0012300E08B
:1034E0000023DBB2384A0092484A4049374802F08C
:1034F00013FA454B1B78DBB2002B0ED001F036F9E6
:103500000346002B09D001F03DF90346002B02D100
:10351000FB7C002B01D0012300E00023DAB23C4BFE
:103520001A70FEF7BDFC3A4B1B78DBB2002B0FD0B4
:10353000384B1B78DBB2002B0AD0374B1B78002BA3
:1035400006D0214B93F83D30002B01D0012300E041
:103550000023DAB2314B1A701B4BDB68304A136020
:10356000194B1B692F4A1360174B5B692E4A136076
:103570002E4B9B6B2E4A13602E4B9B6B2E4A136077
:10358000264B1B78DBB2002B03D12C4B01221A7087
:103590005DE02B4B1B6840F27D42934203D9274BE1
:1035A00002221A7053E0274B1B6840F2DC52934210
:1035B0004AD8224B03221A7049E000BF000802409B
:1035C0004C0B0020D809002034010020780900208D
:1035D0000AD7A33C500A0020000300200403002067
:1035E00000007A44600A00206C0A0020E4090020F0
:1035F0006F12833A64090020680900206C090020DA
:1036000070090020BD378635CE090020140A00203D
:10361000D909002034090020D80A002074090020AC
:10362000480900204C090020500900204C020020CD
:10363000540900209801002058090020F0000020C3
:10364000E40A0020EC0A0020154B00221A70154BEA
:10365000D3ED007AFCEEE77A17EE903A9AB2124B6D
:103660001A80104BD3ED017AFCEEE77A17EE903A10
:103670009AB20E4B1A800B4BD3ED027AFCEEE77A2E
:1036800017EE903A9AB20A4B1A80064BD3ED037AA2
:10369000FCEEE77A17EE903A9AB2064B1A80B3E640
:1036A000F0000020780A00205C0900205E0900205C
:1036B000600900206209002080B594B000AF07F1D6
:1036C00020033022002118460AF0ECF807F10C0321
:1036D00000221A605A609A60DA601A610023BB60A7
:1036E000274B1B6C264A43F080531364244B1B6CFE
:1036F00003F08053BB60BB6800237B60214B1B68D9
:10370000204A43F4404313601E4B1B6803F44043BC
:103710007B607B6801233B624FF480337B62022332
:10372000BB634FF48003FB6319233B64C0237B64BA
:103730000223BB640423FB6407F12003184605F051
:10374000BDFE0346002B01D000F03BF80F23FB60C9
:1037500002233B6100237B614FF48053BB61002354
:10376000FB6107F10C030321184606F01FF903461D
:10377000002B01D000F025F800BF5037BD4680BDBA
:10378000003802400070004080B582B000AF786021
:103790000B467B807B8819467868FDF7B1FE00BF39
:1037A0000837BD4680BD80B582B000AF78607868CC
:1037B000FDF7CCFE7868FFF761FD00BF0837BD4616
:1037C00080BD80B400AF72B600BF00BFFDE700004F
:1037D00080B500AF054B1B78002B05D1044806F0DF
:1037E00065FF024B01221A7000BF80BDB0090020A6
:1037F0004C0B002080B584B000AF7860FFF7E8FF85
:103800004FF080435B6AFB6000BF4FF080435A6A11
:10381000FB68D31A7A689A42F7D800BF00BF103706
:10382000BD4680BD80B582B000AF786003E04FF444
:103830007A70FFF7DFFF7B685A1E7A60002BF6D1A3
:1038400000BF00BF0837BD4680BD80B400AF012374
:103850001846BD465DF8047B704780B582B000AF66
:10386000786039600AF0F8F8034616221A604FF0C3
:10387000FF3318460837BD4680BD80B582B000AF23
:1038800078604FF0FF317868FFF7E7FF00BFFDE792
:1038900080B586B000AFF860B9607A6000237B61C4
:1038A0000AE0AFF300800146BB685A1CBA60CAB296
:1038B0001A707B6901337B617A697B689A42F0DB1D
:1038C0007B6818461837BD4680BD80B586B000AF0E
:1038D000F860B9607A6000237B6109E0BB685A1C1C
:1038E000BA601B781846AFF300807B6901337B61B7
:1038F0007A697B689A42F1DB7B6818461837BD46C7
:1039000080BD80B483B000AF78604FF0FF331846BD
:103910000C37BD465DF8047B704780B483B000AFC0
:10392000786039603B684FF400525A6000231846B3
:103930000C37BD465DF8047B704780B483B000AFA0
:103940007860012318460C37BD465DF8047B70474C
:1039500080B485B000AFF860B9607A600023184683
:103960001437BD465DF8047B7047000080B586B013
:1039700000AF7860144A154BD31A7B617B693B61B9
:10398000134B1B68002B02D1114B124A1A60104BCB
:103990001A687B6813443A699A4207D20AF05CF8C5
:1039A00003460C221A604FF0FF3309E0084B1B68F6
:1039B000FB60074B1A687B681344054A1360FB6879
:1039C00018461837BD4680BD0000022000040000E4
:1039D000B4090020700F002080B485B000AF78607B
:1039E0000023FB6013E07A68FB6802339B001344FA
:1039F00004334FF000021A607A68FB6806339B00BC
:103A000013444FF000021A60FB680133FB60FB684F
:103A1000022BE8DD7B684FF07E525A627B684FF0E4
:103A200000029A627B684FF00002DA627B684FF016
:103A300000021A637B6800229A637B6800225A6343
:103A40007B68002283F83C207B68002283F83D20BD
:103A500000BF1437BD465DF8047B704780B500AFEA
:103A600000221021024804F0A3FB00BF80BD00BF6C
:103A70000000024080B500AF01221021024804F08E
:103A800097FB00BF80BD00BF0000024080B584B03E
:103A900000AF03460A46FB711346BB71FB7903F086
:103AA0007F03DBB23B73BB797B73FFF7D7FF07F173
:103AB0000C0102230222064806F0DFF90346FB73DD
:103AC000FFF7D8FFFB7B18461037BD4680BD00BF0F
:103AD000F40A002080B58EB002AF03463960FB7156
:103AE0001346BB8007F11C0300221A605A609A60DB
:103AF000C3F80B2007F10C0300221A605A609A6089
:103B0000C3F80B20BB88002B02D0BB880E2B01D939
:103B1000012333E0FB7963F07F03DBB23B77FFF7F0
:103B20009DFFBB8801339BB207F10C0207F11C011A
:103B300002200090134806F0E4FA034687F82D307F
:103B4000FFF798FF97F82D30002B02D097F82D3013
:103B500014E00023FB850CE0FB8D5A1CFB8D3968BB
:103B60000B4430323A4412F8242C1A70FB8D013386
:103B7000FB85FA8DBB889A42EED300231846303776
:103B8000BD4680BDF40A002080B582B000AF034678
:103B90003960FB71FB79012239681846FFF79AFFFB
:103BA000034618460837BD4680BD000000000000EF
:103BB00080B58AB000AF78607B681B781BB21B02AF
:103BC0001AB27B6801331B781BB213431AB2B64B8F
:103BD0005A807B6802331B781BB21B021AB27B68C7
:103BE00003331B781BB213431AB2AF4B1A807B68A6
:103BF00004331B781BB21B021AB27B6805331B7897
:103C00001BB213431AB2A84B9A807B6808331B7807
:103C10001BB21B021AB27B6809331B781BB2134319
:103C20001AB2A24B5A807B680A331B781BB21B0264
:103C30001AB27B680B331B781BB213431AB29B4B2F
:103C40001A807B680C331B781BB21B021AB27B688C
:103C50000D331B781BB213431AB2944B9A80944BCA
:103C60001B78002B54D0904BB3F9003007EE903AFC
:103C7000B8EEE77A8F4BD3ED007A77EE677AC7ED2F
:103C8000067A894BB3F9023007EE903AB8EEE77A3C
:103C9000884BD3ED017A77EE677AC7ED077A824BCE
:103CA000B3F9043007EE903AB8EEE77A814BD3EDE2
:103CB000027A77EE677AC7ED087A7C4BB3F9003069
:103CC00007EE903AB8EEE77A7B4BD3ED007A77EEC9
:103CD000677AC7ED037A754BB3F9023007EE903A75
:103CE000B8EEE77A744BD3ED017A77EE677AC7EDD9
:103CF000047A6E4BB3F9043007EE903AB8EEE77AE7
:103D00006D4BD3ED027A77EE677AC7ED057A35E031
:103D1000654BB3F9003007EE903AF8EEE77AC7ED5D
:103D2000067A614BB3F9023007EE903AF8EEE77A83
:103D3000C7ED077A5C4BB3F9043007EE903AF8EE22
:103D4000E77AC7ED087A594BB3F9003007EE903A9D
:103D5000F8EEE77AC7ED037A544BB3F9023007EE79
:103D6000903AF8EEE77AC7ED047A504BB3F9043095
:103D700007EE903AF8EEE77AC7ED057A97ED067A06
:103D8000DFED4E6AC7EE267A9FED4D7A67EE877AB1
:103D90004C4BC3ED007A97ED077ADFED486AC7EE2A
:103DA000267A9FED477A67EE877A464BC3ED017A14
:103DB00097ED087ADFED416AC7EE267AF1EE677A71
:103DC0009FED3F7A67EE877A3E4BC3ED027A97ED1F
:103DD000037ADFED3D6AC7EE267AF1EE677A17EED9
:103DE000903A1846FCF7C8FB2DA3D3E90023FCF753
:103DF0001BFC02460B4610461946FCF7E5FE03463F
:103E0000324A136097ED047ADFED2F6AC7EE267A07
:103E1000F1EE677A17EE903A1846FCF7ADFB20A357
:103E2000D3E90023FCF700FC02460B461046194676
:103E3000FCF7CAFE0346254A536097ED057ADFED8D
:103E4000226AC7EE267AF1EE677A17EE903A1846A4
:103E5000FCF792FB12A3D3E90023FCF7E5FB024633
:103E60000B4610461946FCF7AFFE0346174A93600F
:103E7000174B1B78002B0FD1124B1B68154A136090
:103E8000104B5B68134A53600E4B9B68114A93605A
:103E90000F4B01221A7046E000237B6240E000BF16
:103EA000E49C52A246DF913F280A0020300A0020FD
:103EB000D80A0020CC0A0020C00A0020000080465A
:103EC0000AE81C41380A002000000343440A00208D
:103ED000BB090020A40A0020404A7B6A9B001344CF
:103EE00093ED007A3E4A7B6A9B001344D3ED006A4F
:103EF0003A4A7B6A9B001344D3ED007A76EEE76A78
:103F0000384BD3ED007A66EEA77A77EE277A334AFC
:103F10007B6A9B001344C3ED007A7B6A01337B62AA
:103F20007B6A022BD8DD304B1B78002B0FD12F4B37
:103F30001B682F4A13602D4B5B682D4A53602B4B37
:103F40009B682B4A9360284B01221A7029E00023BA
:103F50007B6223E0264A7B6A9B00134493ED007A40
:103F6000224A7B6A9B001344D3ED006A204A7B6A95
:103F70009B001344D3ED007A76EEE76A1D4BD3ED38
:103F8000007A66EEA77A77EE277A194A7B6A9B0059
:103F90001344C3ED007A7B6A01337B627B6A022B98
:103FA000D8DD0E4B1B68144AD3600C4B5B68124A79
:103FB00013610A4B9B68104A53610D4B1B680E4AF4
:103FC00013600B4B5B680C4A5360094B9B680A4AB1
:103FD000936000BF2837BD4680BD00BFA40A002003
:103FE000380A0020E40D0108BC090020440A002022
:103FF000980A0020E80D0108E409002080B582B08D
:1040000000AF0023FB71434B00221A70424B002289
:104010001A70424B00221A70414B00221A70FFF7AF
:1040200029FD0A20FFF7FEFB80216B20FFF72EFD04
:104030000346002B56D16420FFF7F4FB01216B20CF
:10404000FFF724FD0346002B4ED100216C20FFF723
:104050001DFD0346002B49D101216A20FFF716FD03
:104060000346002B44D140217020FFF70FFD03468B
:10407000002B3FD105211A20FFF708FD0346002B36
:104080003AD100211920FFF701FD0346002B35D15D
:1040900000211B20FFF7FAFC0346002B30D1002142
:1040A0001C20FFF7F3FC0346002B2BD105211D201C
:1040B000FFF7ECFC0346002B26D11420FFF7B2FBE0
:1040C000FB1D19467520FFF75FFD0346002B1DD130
:1040D000FA79114B1A70FB79122B18D10D4B012272
:1040E0001A7014E000BF12E000BF10E000BF0EE045
:1040F00000BF0CE000BF0AE000BF08E000BF06E020
:1041000000BF04E000BF02E000BF00E000BF0837CE
:10411000BD4680BDB8090020B9090020BA090020B9
:10412000D80A002080B58CB000AF07F10C03002244
:104130001A605A609A603B4600221A605A609A6080
:104140000023FB62614B1B78002B00F0B980002339
:10415000BB625BE007F118030E2219463B20FFF714
:10416000B9FC0346002B4AD17B683A7E12B2120298
:1041700011B27A7E12B20A4312B213447B603B68DA
:10418000BA7E12B2120211B2FA7E12B20A4312B20F
:1041900013443B60BB683A7F12B2120211B27A7FBD
:1041A00012B20A4312B21344BB603B6997F8202055
:1041B00012B2120211B297F8212012B20A4312B2BF
:1041C00013443B61FB6897F8222012B2120211B22D
:1041D00097F8232012B20A4312B21344FB607B69A2
:1041E00097F8242012B2120211B297F8252012B2C9
:1041F0000A4312B213447B61FB6A0133FB624FF442
:10420000FA60FFF7F7FABB6A0133BB62BB6AB3F52A
:104210007A7F9FD3FB6A002B54D0FB6807EE903A5D
:10422000F8EEE76AFB6A07EE903AB8EE677AC6EEF8
:10423000877A274BC3ED007A3B6907EE903AF8EE98
:10424000E76AFB6A07EE903AB8EE677AC6EE877ABD
:104250001F4BC3ED017A7B6907EE903AF8EEE76AEF
:10426000FB6A07EE903AB8EE677AC6EE877A184B8B
:10427000C3ED027A3B6807EE903AF8EEE76AFB6A14
:1042800007EE903AB8EE677AC6EE877A114BC3ED27
:10429000007A7B6807EE903AF8EEE76AFB6A07EE71
:1042A000903AB8EE677AC6EE877A0A4BC3ED017A88
:1042B000084B4FF000029A60074B01221A7002E08F
:1042C00000BF00E000BF3037BD4680BDB809002008
:1042D000C00A0020CC0A0020D80A002080B400AF19
:1042E000034B1B781846BD465DF8047B704700BF42
:1042F000B809002080B400AF034B1B781846BD46B8
:104300005DF8047B704700BFB909002080B400AF9E
:10431000034B1B781846BD465DF8047B704700BF11
:10432000BA09002080B584B000AF0F4B1B78002B7A
:1043300003D10E4B00221A7013E03B460E221946A1
:104340003B20FFF7C7FB0346002B07D1074B012299
:104350001A703B461846FFF72BFC02E0034B002285
:104360001A701037BD4680BDB8090020BA09002078
:1043700080B58AB000AFF860B9607A60FB681B78DE
:10438000042B00F20E8101A252F823F0A143000891
:10439000CD4300080B440008B344000895450008CD
:1043A000FB688C4A1A62FB688B4A5A62FB688B4A2C
:1043B0009A62FB688A4ADA62FB688A4A1A63FB6877
:1043C000894A5A63FB6804221A70EAE000237B6280
:1043D00011E0FA687B6A02339B001344834A1A6037
:1043E000FA687B6A04339B0013440433804A1A60E2
:1043F0007B6A01337B627B6A022BEADDFB68002269
:104400009A63FB6802221A70CBE000237B623EE0D5
:10441000BA687B6A9B00134493ED007AFA687B6A62
:1044200002339B001344D3ED007AB4EEE77AF1EE49
:1044300010FA0AD5BA687B6A9B0013441A68F968B7
:104440007B6A02339B000B441A60BA687B6A9B004C
:10445000134493ED007AFA687B6A04339B0013449B
:104460000433D3ED007AB4EEE77AF1EE10FA0BDD07
:10447000BA687B6A9B0013441A68F9687B6A043344
:104480009B000B4404331A607B6A01337B627B6AB6
:10449000022BBDDDFB689B6B5A1CFB689A63FB68B3
:1044A0009A6BFB68DB6B9A427AD3FB6803221A7023
:1044B00076E000237B623AE0FA687B6A04339B0073
:1044C0001344043393ED007AFA687B6A02339B004D
:1044D0001344D3ED007A77EE277AB6EE007A67EED2
:1044E000877AFA687B6A08339B001344C3ED007A2D
:1044F000FA687B6A04339B001344043393ED007A1B
:10450000FA687B6A02339B001344D3ED007A77EE9E
:10451000677AB6EE007A67EE877A7B6A9B0028336B
:104520003B44143BC3ED007A7B6A01337B627B6AB8
:10453000022BC1DD97ED057AD7ED067A37EE277AA3
:10454000D7ED077A37EE277AF0EE086AC7EE267ABB
:10455000C7ED087A00237B6215E07B6A9B00283355
:104560003B44143B93ED007AD7ED086AC6EE877A98
:10457000FA687B6A0A339B0013440433C3ED007A64
:104580007B6A01337B627B6A022BE6DDFB680422D7
:104590001A7006E07A68B968F86800F02BF800E055
:1045A00000BFFB681B78042B0FD000237B6209E05F
:1045B0007A687B6A9B0013444FF000021A607B6AA2
:1045C00001337B627B6A022BF2DD00BF2837BD46D8
:1045D00080BD00BF88169940D0CC5CC02085EB40E0
:1045E000ACE56F3F6B45743FD5A7903F286B6E4E8F
:1045F000286B6ECE80B487B000AFF860B9607A6087
:1046000000237B6132E0BA687B699B00134493ED21
:10461000007AFA687B6908339B001344D3ED007A73
:1046200077EE677AC7ED047AFA687B690A339B00F4
:1046300013440433D3ED007A97ED047A67EE277ABA
:10464000C7ED047AFB68D3ED017AF7EE006A86EED7
:10465000A77AD7ED047A67EE277A7A687B699B00A0
:104660001344C3ED007A7B6901337B617B69022BC4
:10467000C9DD00BF00BF1C37BD465DF8047B704735
:1046800080B586B004AF3B1D00210A461A800A4659
:104690009A70324B00221A70314B00221A70314B43
:1046A00000221A702F4B00225A702E4B00229A7053
:1046B00005230293032301933B1D009301230A2248
:1046C0003C21294803F0E6FF0346002B14D13A7938
:1046D000244B1A707A79234B5A70BA79214B9A700D
:1046E0003B79482B08D17B79342B05D1BB79332B0F
:1046F00002D11A4B01221A707023FB70052302931A
:1047000001230193FB1C0093012300223C21164846
:1047100003F0C6FE2023FB700523029301230193BF
:10472000FB1C0093012301223C210F4803F0B8FE3B
:104730000023FB700523029301230193FB1C0093CC
:10474000012302223C21084803F0AAFE42F2107025
:10475000FFF750F800BF0837BD4680BDBD090020F7
:10476000BE090020C0090020C007002080B400AFAF
:10477000034B1B781846BD465DF8047B704700BFAD
:10478000BD09002080B400AF034B1B781846BD461E
:104790005DF8047B704700BFBE09002080B58CB077
:1047A00004AF6B4B1B78002B03D16A4B00221A70AD
:1047B000CAE005230293062301933B1D00930123C6
:1047C00003223C21644803F065FF0346002B40F0C0
:1047D000B880604B01221A703B791BB21B021AB2DF
:1047E0007B791BB21343FB83BB791BB21B021AB24A
:1047F000FB791BB21343BB833B7A1BB21B021AB279
:104800007B7A1BB213437B83B7F91E3007EE903AD5
:10481000F8EEE77AC7ED057AB7F91A3007EE903A65
:10482000F8EEE77AC7ED047AB7F91C3007EE903A54
:10483000F8EEE77AC7ED037AD7ED057A9FED477A70
:1048400067EE877A464BC3ED007AD7ED047AF1EE36
:10485000677A9FED427A67EE877A414BC3ED017A22
:10486000D7ED037AF1EE677A9FED3C7A67EE877AAF
:104870003B4BC3ED027A3B4A39493B48FFF778FD91
:10488000394B1B78042B5FD1384B1B78002B0FD191
:10489000344B1B68364A1360324B5B68344A5360B2
:1048A000304B9B68324A9360304B01221A703BE0D8
:1048B0002F4B93ED007A2B4BD3ED006A2C4BD3EDAD
:1048C000007A76EEE77ADFED2B6A67EEA67A77EE6E
:1048D000277A274BC3ED007A254B93ED017A214BC4
:1048E000D3ED016A224BD3ED017A76EEE77ADFED64
:1048F000216A67EEA67A77EE277A1D4BC3ED017A1F
:104900001B4B93ED027A174BD3ED026A184BD3ED94
:10491000027A76EEE77ADFED176A67EEA67A77EE2F
:10492000277A134BC3ED027A114B1B680D4A1360B3
:104930000F4B5B680B4A53600D4B9B68094A9360B1
:1049400002E0044B00221A702037BD4680BD00BF34
:10495000BD090020BE090020C00700207F6ABC3DC1
:10496000040A0020140A0020F4000020BC0A0020E1
:10497000B00A00200AD7A33D80B485B000AF87ED10
:10498000030AC7ED020A87ED011A97ED037AD7ED06
:10499000027AB4EEE77AF1EE10FA01D5BB680BE0CB
:1049A00097ED037AD7ED017AB4EEE77AF1EE10FADB
:1049B00001DD7B6800E0FB6807EE903AB0EE670A25
:1049C0001437BD465DF8047B7047000080B582B0A7
:1049D00000AF87ED010AD7ED017AF5EEC07AF1EE6E
:1049E00010FA02D89FED097A09E097ED010A0BF061
:1049F00093F8F0EE407AF7EE006A86EEA77AF0EED2
:104A0000477AB0EE670A0837BD4680BD0000000057
:104A100080B586B000AFF860B9607A603B60FB6833
:104A2000002B00F0A480BB68002B00F0A0807B6806
:104A3000002B00F09C803B68002B00F09880FB6806
:104A400093ED037AFB68D3ED047A27EE277AFB68AF
:104A5000D3ED026AFB68D3ED057A66EEA77A77EEAE
:104A6000277A37EEA76AFB6893ED047AFB68D3EDEB
:104A7000047A27EE277AFB68D3ED056AFB68D3ED4D
:104A8000057A66EEA77A77EE277A77EEA77AB7EE01
:104A9000007A77EE677AF0EE670AB0EE460A0BF01E
:104AA00039F8F0EE407A3B68C3ED007AFB6893ED8D
:104AB000027AFB68D3ED047A27EE277AFB68D3ED00
:104AC000036AFB68D3ED057A66EEA77A77EE677A1C
:104AD00077EEA77AC7ED057AB7EE001AFFEE000A67
:104AE00097ED050AFFF748FF87ED050A97ED050AE0
:104AF0000AF0E4FFF0EE407A7B68C3ED007AFB68D1
:104B000093ED027AFB68D3ED037A27EE277AFB68F0
:104B1000D3ED046AFB68D3ED057A66EEA77A77EEEB
:104B2000277A37EEA76AFB6893ED037AFB68D3ED2B
:104B3000037A27EE277AFB68D3ED046AFB68D3ED8E
:104B4000047A66EEA77A77EE277A77EEA77AB7EE41
:104B5000007A77EE677AF0EE670AB0EE460A0AF05E
:104B6000D9FFF0EE407ABB68C3ED007A00E000BFE9
:104B70001837BD4680BD000080B58EB000AFF8612B
:104B800087ED060AC7ED050A87ED041AC7ED031A7B
:104B900087ED022AC7ED012A87ED003AFB69002B59
:104BA00000F09180D7ED007AF5EEC07AF1EE10FAC0
:104BB00040F28980D7ED067A27EEA77AD7ED057AFD
:104BC00067EEA77A37EE277AD7ED047A67EEA77AF1
:104BD00077EE277AB0EE670A0AF09EFF87ED0D0A9E
:104BE000D7ED037A27EEA77AD7ED027A67EEA77A98
:104BF00037EE277AD7ED017A67EEA77A77EE277A34
:104C0000B0EE670A0AF088FF87ED0C0AD7ED0D7A3F
:104C10009FED307AF4EEC77AF1EE10FA55DCD7ED5D
:104C20000C7AB6EE007AF4EEC77AF1EE10FA4CD4B4
:104C3000D7ED0C7AB0EE007AF4EEC77AF1EE10FA06
:104C400043DC07F1200307F1240207F12801F8698A
:104C5000FFF7DEFE97ED007AF7EE086AC7EE267AD8
:104C6000C7ED0B7A9FED1B1ADFED1B0A97ED0B0AC0
:104C7000FFF782FE87ED0B0AFB6993ED097AD7ED0A
:104C80000A6AFB69D3ED097A76EEE76AD7ED0B7A0B
:104C900066EEA77A77EE277AFB69C3ED097AFB699E
:104CA00093ED0A7AD7ED096AFB69D3ED0A7A76EEBD
:104CB000E76AD7ED0B7A66EEA77A77EE277AFB697B
:104CC000C3ED0A7A02E000BF00E000BF3837BD46FE
:104CD00080BD00BFCDCC4C3D0000000000000000B6
:104CE00080B586B000AF786039607B689A683B68B1
:104CF0005A627B68DA683B689A627B681A693B682B
:104D0000DA627B685A693B681A6307F10C0307F1A2
:104D1000100207F114017868FFF77AFE97ED057A23
:104D20007B68D3ED097A77EE677AF1EE677A3B68B4
:104D3000C3ED067A97ED047A7B68D3ED0A7A77EEB5
:104D4000677AF1EE677A3B68C3ED077AFA683B68E9
:104D50001A623B6893ED067A3B68D3ED167A77EEDC
:104D6000677A17EE900AFBF707FC35A3D3E9002317
:104D7000FBF75AFC02460B4610461946FBF724FF88
:104D800002463B68DA603B6893ED077A3B68D3EDF7
:104D9000177A77EE677A17EE900AFBF7EDFB28A3F8
:104DA000D3E90023FBF740FC02460B4610461946A8
:104DB000FBF70AFF02463B681A613B6893ED087AED
:104DC0003B68D3ED187A77EE677A17EE900AFBF717
:104DD000D3FB1BA3D3E90023FBF726FC02460B46BB
:104DE00010461946FBF7F0FE02463B685A613B68E5
:104DF0005A693B681A643B681A693B685A643B68A5
:104E0000DA683B689A647B68DA6A3B689A637B6815
:104E10001A6B3B685A633B68012283F83C207B682D
:104E2000DB6A642B01D9012200E000223B6883F891
:104E30003D2000BF1837BD4680BD00BFAFF30080E6
:104E4000F8C1631ADCA54C4080B52DED028B98B0FB
:104E500000AF786287ED080AC7ED070A87ED061AEA
:104E6000C7ED051A87ED042AC7ED032A0B467A60C1
:104E7000FB72D7ED087A27EEA77AD7ED077A67EEAF
:104E8000A77A37EE277AD7ED067A67EEA77A77EE1C
:104E9000277AC7ED167AD7ED167A9FED6F7AF4EE82
:104EA000C77AF1EE10FA00F1E88197ED160AFFF7E4
:104EB0008DFD87ED150A97ED087AD7ED157A67EE27
:104EC000277AC7ED087A97ED077AD7ED157A67EE5E
:104ED000277AC7ED077A97ED067AD7ED157A67EE50
:104EE000277AC7ED067AD7ED060A97ED070A0AF08A
:104EF00011FE87ED140AD7ED087AB1EE678AD7ED77
:104F0000077A27EEA77AD7ED067A67EEA77A77EECB
:104F1000277AB0EE670A0AF0FFFDF0EE407AF0EE75
:104F2000670AB0EE480A0AF0F5FD87ED130A4FF064
:104F30000003FB65FB7A002B00F09080D7ED057A2B
:104F400027EEA77AD7ED047A67EEA77A37EE277AAD
:104F5000D7ED037A67EEA77A77EE277AC7ED127A54
:104F6000D7ED127A9FED3C7AF4EEC77AF1EE10FAA3
:104F700074DB97ED120AFFF729FD87ED150A97ED0F
:104F8000057AD7ED157A67EE277AC7ED057A97EDA2
:104F9000047AD7ED157A67EE277AC7ED047A97ED94
:104FA000037AD7ED157A67EE277AC7ED037A97ED86
:104FB000140A0AF0D3FD87ED110A97ED140A0AF0DE
:104FC0000DFE87ED100A97ED130A0AF0C7FD87ED75
:104FD0000F0A97ED130A0AF001FE87ED0E0A97ED0E
:104FE000057AD7ED0F7A27EE277AD7ED046AD7ED49
:104FF000107A66EEA76AD7ED0E7A66EEA77A37EEDC
:10500000277AD7ED036AD7ED117A66EEA76AD7ED56
:105010000E7A66EEA77A77EE277AC7ED0D7A97EDCE
:10502000047AD7ED117A27EE277AD7ED036AD7ED08
:10503000107A66EEA77A77EE677AC7ED0C7AD7ED2D
:105040000C7AF1EE677AD7ED0D0AB0EE670A0AF036
:1050500061FD87ED170A01E0CCBC8C2BD7ED147AEB
:10506000B6EE007A67EE877AB0EE670A0AF076FD50
:1050700087ED110AD7ED147AB6EE007A67EE877ADB
:10508000B0EE670A0AF0AAFD87ED100AD7ED137A91
:10509000B6EE007A67EE877AB0EE670A0AF05EFD38
:1050A00087ED0F0AD7ED137AB6EE007A67EE877AAE
:1050B000B0EE670A0AF092FD87ED0E0AD7ED177A77
:1050C000B6EE007A67EE877AB0EE670A0AF046FD20
:1050D00087ED0B0AD7ED177AB6EE007A67EE877A7E
:1050E000B0EE670A0AF07AFD87ED0A0A97ED117AA9
:1050F000D7ED0F7A27EE277AD7ED0B7A27EE277AAE
:10510000D7ED106AD7ED0E7A66EEA76AD7ED0A7A68
:1051100066EEA77A77EE277A7B6AC3ED027A97ED7F
:10512000107AD7ED0F7A27EE277AD7ED0B7A27EE94
:10513000277AD7ED116AD7ED0E7A66EEA76AD7ED1A
:105140000A7A66EEA77A77EE677A7B6AC3ED037A0E
:1051500097ED117AD7ED0E7A27EE277AD7ED0B7AF5
:1051600027EE277AD7ED106AD7ED0F7A66EEA76A99
:10517000D7ED0A7A66EEA77A77EE277A7B6AC3EDD7
:10518000047A97ED117AD7ED0F7A27EE277AD7EDCB
:105190000A7A27EE277AD7ED106AD7ED0E7A66EEF7
:1051A000A76AD7ED0B7A66EEA77A77EE677A7B6A05
:1051B000C3ED057A7B6A93ED027A7B6AD3ED027ABE
:1051C00027EE277A7B6AD3ED036A7B6AD3ED037AF5
:1051D00066EEA77A37EE277A7B6AD3ED046A7B6A9C
:1051E000D3ED047A66EEA77A37EE277A7B6AD3EDA1
:1051F000056A7B6AD3ED057A66EEA77A77EE277AA1
:10520000B0EE670AFFF7E2FB87ED150A7B6A93EDC4
:10521000027AD7ED157A67EE277A7B6AC3ED027AB8
:105220007B6A93ED037AD7ED157A67EE277A7B6A6E
:10523000C3ED037A7B6A93ED047AD7ED157A67EEB6
:10524000277A7B6AC3ED047A7B6A93ED057AD7ED02
:10525000157A67EE277A7B6AC3ED057A7B6A3A6D29
:105260005A627B6AFA6C9A627B6A012283F8342064
:105270007968786AFFF734FD00E000BF6037BD460B
:10528000BDEC028B80BD00BF80B596B000AF7862E8
:1052900087ED080AC7ED070A87ED061AC7ED051A5C
:1052A00087ED042AC7ED032A87ED023A7960D7ED2E
:1052B000057A27EEA77AD7ED047A67EEA77A37EE5C
:1052C000277AD7ED037A67EEA77A77EE277AC7EDCC
:1052D000157AD7ED027AF5EEC07AF1EE10FA40F2C7
:1052E0009F82D7ED027A9FEDA47AF4EEC77AF1EEB1
:1052F00010FA00F39582D7ED157A9FEDA07AF4EEBF
:10530000C77AF1EE10FA40F3728197ED150A0AF0B0
:1053100003FC87ED140AD7ED147AB6EE007AF4EEAA
:10532000C77AF1EE10FAC0F26281D7ED147AB0EECE
:10533000007AF4EEC77AF1EE10FA00F2588197ED98
:10534000150AFFF743FB87ED130A97ED057AD7EDB2
:10535000137A67EE277AC7ED057A97ED047AD7EDD1
:10536000137A67EE277AC7ED047A97ED037AD7EDC3
:10537000137A67EE277AC7ED037A7B6A93ED037A97
:105380007B6AD3ED057A27EE277A7B6AD3ED026A32
:105390007B6AD3ED047A66EEA77A77EE677AC7ED7B
:1053A000127A7B6A93ED027A7B6AD3ED037A27EE59
:1053B000277A7B6AD3ED046A7B6AD3ED057A66EEC1
:1053C000A77A77EE277AC7ED117A7B6A93ED027A96
:1053D0007B6AD3ED027A67EE277AB6EE007A37EE73
:1053E000C77A7B6AD3ED056A7B6AD3ED057A66EEF0
:1053F000A77A77EE277AC7ED107A97ED047AD7ED82
:10540000107A27EE277AD7ED036AD7ED117A66EE88
:10541000A77A77EE677AC7ED0F7A97ED037AD7ED23
:10542000127A27EE277AD7ED056AD7ED107A66EE65
:10543000A77A77EE677AC7ED0E7A97ED057AD7ED02
:10544000117A27EE277AD7ED046AD7ED127A66EE45
:10545000A77A77EE677AC7ED0D7A7B6AD3ED017A8A
:10546000F5EEC07AF1EE10FA40F38E807B6A93ED90
:10547000067A7B6AD3ED016AD7ED0F7A66EEA76AEA
:10548000D7ED027A66EEA77A77EE277A7B6AC3EDCC
:10549000067A7B6A93ED077A7B6AD3ED016AD7EDD2
:1054A0000E7A66EEA76AD7ED027A66EEA77A77EEF5
:1054B000277A7B6AC3ED077A7B6A93ED087A7B6A69
:1054C000D3ED016AD7ED0D7A66EEA76AD7ED027AC1
:1054D00066EEA77A77EE277A7B6AC3ED087A7B6A55
:1054E000D3ED067A9FED261ADFED260AB0EE670AA5
:1054F000FFF742FAF0EE407A7B6AC3ED067A7B6AE8
:10550000D3ED077A9FED1E1ADFED1E0AB0EE670A93
:10551000FFF732FAF0EE407A7B6AC3ED077A7B6AD6
:10552000D3ED087A9FED161ADFED160AB0EE670A82
:10553000FFF722FAF0EE407A7B6AC3ED087A7B6AC5
:10554000D3ED067A97ED087A77EE277AC7ED087AD9
:105550007B6AD3ED077A97ED077A77EE277AC7ED66
:10556000077A7B6AD3ED087A97ED067A77EE277A89
:10557000C7ED067A14E000BFCDCCCC3DCCBC8C2B63
:105580009A99993E9A9999BE7B6A4FF000029A6166
:105590007B6A4FF00002DA617B6A4FF000021A6208
:1055A0007B6A93ED007AD7ED0F7A67EE277A97ED55
:1055B000087A77EE277AC7ED087A7B6A93ED007A4E
:1055C000D7ED0E7A67EE277A97ED077A77EE277A8E
:1055D000C7ED077A7B6A93ED007AD7ED0D7A67EE17
:1055E000277A97ED067A77EE277AC7ED067AD7ED18
:1055F000027AB6EE007A67EE877A97ED087A67EE60
:10560000277AC7ED087AD7ED027AB6EE007A67EE10
:10561000877A97ED077A67EE277AC7ED077AD7ED95
:10562000027AB6EE007A67EE877A97ED067A67EE31
:10563000277AC7ED067A7B6A9B683B637B6ADB68E7
:10564000FB627B6A1B69BB627B6A93ED027AD7EDD2
:105650000B7AF1EE676AD7ED087A66EEA76A97EDE6
:105660000A6AD7ED077A66EE277A76EEE76A7B6AF2
:1056700093ED056AD7ED067A66EE277A76EEE77A3D
:1056800077EE277A7B6AC3ED027A7B6A93ED037A21
:10569000D7ED0C6AD7ED087A66EEA76A97ED0A6A2D
:1056A000D7ED067A66EE277A76EEA76A7B6A93EDE7
:1056B000056AD7ED077A66EE277A76EEE77A77EE17
:1056C000277A7B6AC3ED037A7B6A93ED047AD7ED80
:1056D0000C6AD7ED077A66EEA76A97ED0B6AD7EDED
:1056E000067A66EE277A76EEE76A7B6A93ED056ABC
:1056F000D7ED087A66EE277A76EEA77A77EE277AE4
:105700007B6AC3ED047A7B6A93ED057AD7ED0C6A68
:10571000D7ED067A66EEA76A97ED0B6AD7ED077AA2
:1057200066EE277A76EEA76A97ED0A6AD7ED087AD1
:1057300066EE277A76EEE77A77EE277A7B6AC3ED14
:10574000057A7B6A93ED027A7B6AD3ED027A27EEC3
:10575000277A7B6AD3ED036A7B6AD3ED037A66EE20
:10576000A77A37EE277A7B6AD3ED046A7B6AD3ED9A
:10577000047A66EEA77A37EE277A7B6AD3ED056A5C
:105780007B6AD3ED057A66EEA77A77EE277AB0EEDC
:10579000670AFFF71BF987ED130A7B6A93ED027A1C
:1057A000D7ED137A67EE277A7B6AC3ED027A7B6ABC
:1057B00093ED037AD7ED137A67EE277A7B6AC3ED10
:1057C000037A7B6A93ED047AD7ED137A67EE277A32
:1057D0007B6AC3ED047A7B6A93ED057AD7ED137A81
:1057E00067EE277A7B6AC3ED057A7B6ADB6A5A1C0F
:1057F0007B6ADA6297ED023AD7ED032A97ED042A25
:10580000D7ED051A97ED061AD7ED070A97ED080AA6
:10581000786AFFF7B1F97968786AFFF761FA00E012
:1058200000BF5837BD4680BD80B483B000AF7860FC
:105830007B68002B36D07B684FF081421A607B6812
:105840004FF000025A607B684FF07E529A607B688E
:105850004FF00002DA607B684FF000021A617B684B
:105860004FF000025A617B684FF000029A617B683A
:105870004FF00002DA617B684FF000021A627B6829
:105880004FF000025A627B684FF000029A627B6818
:105890000022DA627B6800221A637B68002283F8A8
:1058A000342000E000BF0C37BD465DF8047B704734
:1058B00080B485B000AFF86087ED020AC7ED010A39
:1058C000FB68002B22D0D7ED027AF5EEC07AF1EE1C
:1058D00010FA02D54FF00003BB60D7ED017AF5EE68
:1058E000C07AF1EE10FA02D54FF000037B60D7EDDD
:1058F000027A77EEA77AFB68C3ED007AD7ED017ADA
:1059000077EEA77AFB68C3ED017A00E000BF143799
:10591000BD465DF8047B704780B5ACB000AFF86061
:10592000B9607A60FB70FB68002B00F0D584BB681F
:10593000002B00F0D184D7F8B830002B00F0CC84D5
:10594000BB681B68C7F8AC30BB685B68C7F8A83099
:10595000BB689B68C7F8A430BB68D3ED037AF1EE4F
:10596000677AC7ED287ABB68D3ED047AF1EE677ADF
:10597000C7ED277ABB68D3ED057AF1EE677AC7EDFC
:10598000267ABB689B69C7F888304FF00003C7F8D8
:1059900094304FF00003C7F890304FF00003C7F881
:1059A0008C307B68002B0BD07B681B68C7F8943069
:1059B0007B685B68C7F890307B689B68C7F88C3061
:1059C000D7ED227AF5EEC07AF1EE10FA40F2868435
:1059D000D7ED227A9FED367AF4EEC77AF1EE10FA1F
:1059E00000F37C84FB6893F83430002B18D1FB78EB
:1059F000D7F8B8201946D7ED232A97ED242AD7EDFA
:105A0000251A97ED261AD7ED270A97ED280AF86888
:105A1000FFF71AFAFB6893F83430002B00F060842B
:105A2000FB78002B14D1D7F8B81097ED223AD7EDB8
:105A3000262A97ED272AD7ED281A97ED291AD7EDB0
:105A40002A0A97ED2B0AF868FFF71EFC00F049BC04
:105A5000D7ED257A27EEA77AD7ED247A67EEA77AD5
:105A600037EE277AD7ED237A67EEA77A77EE277A93
:105A7000C7ED217AD7ED217A9FED0E7AF4EEC77A41
:105A8000F1EE10FA18D5D7F8B81097ED223AD7ED05
:105A9000262A97ED272AD7ED281A97ED291AD7ED50
:105AA0002A0A97ED2B0AF868FFF7EEFB00F019BC05
:105AB000CDCCCC3DCCBC8C2BD7ED287A27EEA77A69
:105AC000D7ED277A67EEA77A37EE277AD7ED267AD1
:105AD00067EEA77A77EE277AC7ED207AD7ED207A9E
