:020000040800F2
:100000000000022069800008A9180008B118000843
:10001000B9180008C1180008C9180008000000003D
:10002000000000000000000000000000D1180008DF
:10003000DF18000800000000ED180008FB18000899
:10004000B9800008B9800008B9800008B9800008AC
:10005000B9800008B9800008B9800008B98000089C
:10006000B9800008B9800008B980000809190008A3
:10007000B9800008B9800008B9800008B98000087C
:100080001D190008B9800008B980000800000000B0
:10009000000000000000000000000000B98000081F
:1000A000B9800008B9800008B9800008B98000084C
:1000B000B9800008B9800008B9800008B98000083C
:1000C000B9800008B9800008B9800008B98000082C
:1000D000B980000831190008451900080000000027
:1000E000B9800008B9800008B9800008000000004D
:1000F000000000000000000000000000B9800008BF
:1001000000000000B9800008B9800008B98000082C
:1001100000000000000000000000000000000000DF
:10012000B9800008B980000859190008B980000892
:10013000B98000080000000000000000000000007E
:10014000000000000000000000000000B98000086E
:10015000B9800008B9800008B9800008B98000089B
:10016000B9800008B980000800000000000000000D
:10017000000000000000000000000000000000007F
:1001800000000000B980000800000000000000002E
:08019000B9800008B9800008E5
:1001980010B5054C237833B9044B13B10448AFF3B9
:1001A80000800123237010BD000100200000000022
:1001B8008093000808B5034B1BB103490348AFF30C
:1001C800008008BD000000000401002080930008A2
:1001D80081F0004102E000BF83F0004330B54FEAF0
:1001E80041044FEA430594EA050F08BF90EA020F5D
:1001F8001FBF54EA000C55EA020C7FEA645C7FEAF0
:10020800655C00F0E2804FEA5454D4EB5555B8BF12
:100218006D420CDD2C4480EA020281EA030382EA83
:10022800000083EA010180EA020281EA0303362D15
:1002380088BF30BD11F0004F4FEA01314FF4801CE8
:100248004CEA113102D0404261EB410113F0004FFA
:100258004FEA03334CEA133302D0524263EB4303B1
:1002680094EA050F00F0A780A4F10104D5F1200E4F
:100278000DDB02FA0EFC22FA05F2801841F10001AA
:1002880003FA0EF2801843FA05F359410EE0A5F17E
:1002980020050EF1200E012A03FA0EFC28BF4CF0AF
:1002A800020C43FA05F3C01851EBE37101F0004565
:1002B80007D54FF0000EDCF1000C7EEB00006EEB72
:1002C8000101B1F5801F1BD3B1F5001F0CD34908FC
:1002D8005FEA30004FEA3C0C04F101044FEA445253
:1002E80012F5800F80F09A80BCF1004F08BF5FEADA
:1002F800500C50F1000041EB045141EA050130BDBA
:100308005FEA4C0C404141EB0101013C28BFB1F5CB
:10031800801FE9D291F0000F04BF01460020B1FA16
:1003280081F308BF2033A3F10B03B3F120020CDAE9
:100338000C3208DD02F1140CC2F10C0201FA0CF0C7
:1003480021FA02F10CE002F11402D8BFC2F1200C2C
:1003580001FA02F120FA0CFCDCBF41EA0C019040E2
:10036800E41AA2BF01EB0451294330BD6FEA04042B
:100378001F3C1CDA0C340EDC04F11404C4F1200216
:1003880020FA04F001FA02F340EA030021FA04F328
:1003980045EA030130BDC4F10C04C4F1200220FA7F
:1003A80002F001FA04F340EA0300294630BD21FABD
:1003B80004F0294630BD94F0000F83F4801306BF83
:1003C80081F480110134013D4EE77FEA645C18BF77
:1003D8007FEA655C29D094EA050F08BF90EA020F0E
:1003E80005D054EA000C04BF1946104630BD91EA06
:1003F800030F1EBF0021002030BD5FEA545C05D109
:100408004000494128BF41F0004130BD14F5800447
:100418003CBF01F5801130BD01F0004545F0FE41BB
:1004280041F470014FF0000030BD7FEA645C1ABFF0
:10043800194610467FEA655C1CBF0B46024650EA27
:10044800013406BF52EA033591EA030F41F4002153
:1004580030BD00BF90F0000F04BF0021704730B5D9
:100468004FF4806404F132044FF000054FF00001AE
:1004780050E700BF90F0000F04BF0021704730B56F
:100488004FF4806404F1320410F0004548BF404244
:100498004FF000013EE700BF42004FEAE2014FEA99
:1004A80031014FEA02701FBF12F07F4393F07F4F74
:1004B80081F06051704732F07F4208BF704793F077
:1004C8007F4F04BF41F40021704730B54FF460748A
:1004D80001F0004521F000411CE700BF50EA01028D
:1004E80008BF704730B54FF000050AE050EA010236
:1004F80008BF704730B511F0004502D5404261EBA6
:1005080041014FF4806404F132045FEA915C3FF4E6
:10051800D8AE4FF003025FEADC0C18BF03325FEA83
:10052800DC0C18BF033202EBDC02C2F1200300FA34
:1005380003FC20FA02F001FA03FE40EA0E0021FA59
:1005480002F11444BDE600BF70B54FF0FF0C4CF447
:10055800E06C1CEA11541DBF1CEA135594EA0C0FF9
:1005680095EA0C0F00F0DEF82C4481EA030621EA34
:100578004C5123EA4C5350EA013518BF52EA03356F
:1005880041F4801143F4801338D0A0FB02CE4FF021
:100598000005E1FB02E506F00042E0FB03E54FF051
:1005A8000006E1FB03569CF0000F18BF4EF0010E49
:1005B800A4F1FF04B6F5007F64F5407404D25FEA45
:1005C8004E0E6D4146EB060642EAC62141EA5551F8
:1005D8004FEAC52040EA5E504FEACE2EB4F1FD0C3A
:1005E80088BFBCF5E06F1ED8BEF1004F08BF5FEAB8
:1005F800500E50F1000041EB045170BD06F000466A
:1006080046EA010140EA020081EA0301B4EB5C0416
:10061800C2BFD4EB0C0541EA045170BD41F480110E
:100628004FF0000E013C00F3AB8014F1360FDEBF33
:10063800002001F0004170BDC4F10004203C35DA0F
:100648000C341BDC04F11404C4F1200500FA05F392
:1006580020FA04F001FA05F240EA020001F0004233
:1006680021F0004110EBD37021FA04F642EB0601A9
:100678005EEA430E08BF20EAD37070BDC4F10C04D3
:10068800C4F1200500FA04F320FA05F001FA04F297
:1006980040EA020001F0004110EBD37041F1000183
:1006A8005EEA430E08BF20EAD37070BDC4F120058E
:1006B80000FA05F24EEA020E20FA04F301FA05F2F6
:1006C80043EA020321FA04F001F0004121FA04F29E
:1006D80020EA020000EBD3705EEA430E08BF20EA6E
:1006E800D37070BD94F0000F0FD101F000464000A8
:1006F80041EB010111F4801F08BF013CF7D041EA2A
:10070800060195F0000F18BF704703F0004652002D
:1007180043EB030313F4801F08BF013DF7D043EAFE
:100728000603704794EA0C0F0CEA135518BF95EAB4
:100738000C0F0CD050EA410618BF52EA4306D1D13B
:1007480081EA030101F000414FF0000070BD50EA5A
:10075800410606BF1046194652EA430619D094EAE4
:100768000C0F02D150EA013613D195EA0C0F05D1CE
:1007780052EA03361CBF104619460AD181EA030122
:1007880001F0004141F0FE4141F470014FF00000DA
:1007980070BD41F0FE4141F4780170BD70B54FF075
:1007A800FF0C4CF4E06C1CEA11541DBF1CEA1355F5
:1007B80094EA0C0F95EA0C0F00F0A7F8A4EB0504D7
:1007C80081EA030E52EA03354FEA013100F08880CE
:1007D8004FEA03334FF0805545EA131343EA126397
:1007E8004FEA022245EA111545EA10654FEA00264C
:1007F8000EF000419D4208BF964244F1FD0404F505
:10080800407402D25B084FEA3202B61A65EB030560
:100818005B084FEA32024FF480104FF4002CB6EB1D
:10082800020E75EB030E22BFB61A754640EA0C009D
:100838005B084FEA3202B6EB020E75EB030E22BFDD
:10084800B61A754640EA5C005B084FEA3202B6EB1E
:10085800020E75EB030E22BFB61A754640EA9C00DD
:100868005B084FEA3202B6EB020E75EB030E22BFAD
:10087800B61A754640EADC0055EA060E18D04FEA6B
:10088800051545EA16754FEA06164FEAC30343EA0B
:1008980052734FEAC2025FEA1C1CC0D111F4801FD8
:1008A8000BD141EA00014FF000004FF0004CB6E7D1
:1008B80011F4801F04BF01430020B4F1FD0C88BF70
:1008C800BCF5E06F3FF6AFAEB5EB030C04BFB6EB7B
:1008D800020C5FEA500C50F1000041EB045170BD6E
:1008E8000EF0004E4EEA113114EB5C04C2BFD4EB9B
:1008F8000C0541EA045170BD41F480114FF0000E1F
:10090800013C90E645EA060E8DE60CEA135594EA9A
:100918000C0F08BF95EA0C0F3FF43BAF94EA0C0F9D
:100928000AD150EA01347FF434AF95EA0C0F7FF412
:1009380025AF104619462CE795EA0C0F06D152EA66
:1009480003353FF4FDAE1046194622E750EA41064A
:1009580018BF52EA43067FF4C5AE50EA41047FF45B
:100968000DAF52EA43057FF4EBAE12E74FF0FF3CC0
:1009780006E000BF4FF0010C02E000BF4FF0010C91
:100988004DF804CD4FEA410C7FEA6C5C4FEA430C0A
:1009980018BF7FEA6C5C1BD001B050EA410C0CBF59
:1009A80052EA430C91EA030F02BF90EA020F0020BB
:1009B800704710F1000F91EA030F58BF994208BF22
:1009C80090422CBFD8176FEAE37040F001007047DF
:1009D8004FEA410C7FEA6C5C02D150EA013C07D136
:1009E8004FEA430C7FEA6C5CD6D152EA033CD3D081
:1009F8005DF8040B704700BF8446104662468C467B
:100A08001946634600E000BF01B5FFF7B7FF0028AD
:100A180048BF10F1000F01BD4DF808EDFFF7F4FFD6
:100A28000CBF012000205DF808FB00BF4DF808ED61
:100A3800FFF7EAFF34BF012000205DF808FB00BF84
:100A48004DF808EDFFF7E0FF94BF012000205DF8A6
:100A580008FB00BF4DF808EDFFF7CEFF94BF01205B
:100A680000205DF808FB00BF4DF808EDFFF7C4FF54
:100A780034BF012000205DF808FB00BF4FEA4102A7
:100A8800B2F1E04324BFB3F5001CDCF1FE5C0DD9E4
:100A980001F0004C4FEAC0024CEA5070B2F1004F2E
:100AA80040EB830008BF20F00100704711F0804F31
:100AB80021D113F13872BCBF01F00040704741F4F6
:100AC80080114FEA5252C2F11802C2F1200C10FAFA
:100AD8000CF320FA02F018BF40F001004FEAC123DE
:100AE8004FEAD32303FA0CFC40EA0C0023FA02F382
:100AF8004FEA4303CCE77FEA625307D150EA013358
:100B08001EBF4FF0FE4040F44000704701F0004027
:100B180040F0FE4040F40000704700BF53B94AB9A6
:100B2800002908BF00281CBF4FF0FF314FF0FF30ED
:100B380000F088B9ADF1080C6DE904CE00F006F8B4
:100B4800DDF804E0DDE9022304B070472DE9F04741
:100B5800089D0F4604468C46002B48D18A4216460B
:100B680061D9B2FA82F34BB1C3F1200201FA03FC56
:100B780020FA02F29E4042EA0C0C9C404FEA164EC4
:100B8800B7B2BCFBFEF1220C0EFB11CC42EA0C42C0
:100B980001FB07F0904209D9B21801F1FF3C80F03F
:100BA800EE80904240F2EB8002393244121AA4B22D
:100BB800B2FBFEF00EFB102244EA024400FB07F7EA
:100BC800A74209D9341900F1FF3280F0DA80A74230
:100BD80040F2D7803444023840EA0140E41B002147
:100BE8001DB1DC400023C5E90043BDE8F0878B4216
:100BF80006D90DB1C5E9000100210846BDE8F08716
:100C0800B3FA83F1002948D1BB4202D3824200F2F1
:100C18000781841A67EB030201209446002DE4D073
:100C2800C5E9004CE1E7002A00F09280B2FA82F3AD
:100C3800002B40F0A8808A1A4FEA164E1FFA86FC4D
:100C48000121200CB2FBFEF70EFB172240EA0242FC
:100C58000CFB07F0904207D9B21807F1FF3802D20F
:100C6800904200F2E2804746121AA4B2B2FBFEF0AC
:100C78000EFB102244EA02440CFB00FCA44507D9F1
:100C8800341900F1FF3202D2A44500F2CB8010469D
:100C9800A4EB0C0440EA0740A2E7C1F120068B4010
:100CA80022FA06FC4CEA030C07FA01F420FA06F3D0
:100CB800F7404FEA1C49234300FA01F81FFA8CFE5B
:100CC800B7FBF9F01C0C09FB107744EA074400FB5A
:100CD8000EF7A74202FA01F20AD91CEB040400F14C
:100CE800FF3A80F09B80A74240F298800238644423
:100CF800E41B9FB2B4FBF9F309FB134447EA04442D
:100D080003FB0EFEA64509D91CEB040403F1FF37CB
:100D180080F08280A6457FD9023B644443EA0040C4
:100D2800A4EB0E04A0FB02E7BC427346B94663D3AA
:100D380060D05DB1B8EB030264EB090404FA06F66F
:100D480022FA01F31E43CC40C5E9006400214CE7B8
:100D58006208480842EAC1710B0C43EA00438AB2B0
:100D680042EA0342B3FBF6F1E407B4463746B64617
:100D78001F23B0FBF6F0D21B41EA004161E7614650
:100D880014E7104628E7C3F1200120FA01F29E403B
:100D980027FA01F19F403A434FEA164E1FFA86FCA4
:100DA800B1FBFEF70EFB1710110C41EA004107FBDF
:100DB8000CF8884504FA03F43AD9711807F1FF30A2
:100DC80001D288451FD8A1EB0801B1FBFEF808FB4A
:100DD8000CF70EFB181192B242EA0142BA422FD226
:100DE800B21808F1FF31C6D2BA42C4D2A8F1020142
:100DF8003244C0E7F0459CD2BEEB020367EB0C0718
:100E08000138B94695E7A6EB08084144B81EB1FB7E
:100E1800FEF808FB0CF7DCE73B467FE7504667E740
:100E28000846FBE63444023832E7023F32441BE707
:100E3800A1EB08013846B1FBFEF808FB0CF7C8E740
:100E4800414698E7704700BF80B500AF114805F0EC
:100E58008DFF4FF4807210490E4806F006F80346DD
:100E6800002B0BD00B4805F04FFF0A4805F0FCFE9D
:100E78004FF480720849074805F0F7FF054BDB6B14
:100E88001B681A68034BDB6B1B6822F008021A60A8
:100E980000BF80BDB00400201C01002080B582B0D6
:100EA80000AF0346FB71FB790D2B36D0FB790A2B7B
:100EB8001AD11C4B1B881A461B4B002199541B4BFB
:100EC8001B78DBB2002B0BD180221749184807F09A
:100ED800F8F8174B002283F87F20144B01221A7070
:100EE800104B00221A8019E0FB791F2B16D9FB79C9
:100EF8007E2B13D80B4B1B887E2B0AD8094B1B88DB
:100F08005A1C91B2074A11801946074AFB79535473
:100F180004E0044B00221A8000E000BF0837BD46F9
:100F280080BD00BF9C0200201C020020200300207E
:100F3800A002002080B584B000AF78600B467B80AB
:100F48007B681B680C4A934211D10023FB8108E09F
:100F5800FB890A4AD35C1846FFF7A0FFFB890133D7
:100F6800FB81FA897B889A42F2D3FFF76DFF00BFB5
:100F78001037BD4680BD00BF001001401C01002095
:100F880080B584B000AF78607B681B680A4A9342DA
:100F98000DD10A4805F0EAFE7B681B681B68FB60F8
:100FA8007B681B685B68FB60FB68FFF74DFF00BF51
:100FB8001037BD4680BD00BF00100140B0040020BE
:100FC80080B500AF02F0D2F900F0BAF900F034F8B9
:100FD80000F046F800F096F8FCE7000080B483B013
:100FE80000AF0346FB71FB79032B13D801A252F81B
:100FF80023F000BF0D10000811100008151000089C
:1010080019100008074B06E0074B04E0074B02E005
:10101800074B00E0074B18460C37BD465DF8047BCC
:10102800704700BF989300089C930008A493000899
:10103800A8930008AC93000880B500AF00F06AFAE6
:1010480000F02AFA00F0A0FC00F0E8F900224FF4C2
:101058000051024803F008FA00BF80BD00080240B2
:1010680098B500AF00F076FB00F0CAFA00F024FD56
:1010780001F0A4FD322000F0FBF902F06FF83220F5
:1010880000F0F6F901F022FE154800F0D1FE4FF00D
:1010980080435B6A134A1360134B00221A60134B98
:1010A8004FF000021A60124B4FF000021A60114B09
:1010B8004FF000021A600220FFF790FF044601F08B
:1010C8009DFE0346002B01D00B4B00E00B4B1A464C
:1010D80021460B4800F010F900BF00BF98BD00BFC3
:1010E800440000202C030020300300204C03002083
:1010F8005003002054030020B4930008BC93000858
:10110800CC93000880B500AF00F006F800BF00BF20
:1011180080BD00000000000080B586B000AF02F07E
:101128008BF938614FF080435B6AFB60FB68BB60FA
:10113800614B1B68BA68D31A7B615F4ABB6813604E
:101148007B69002B04D07B6944F62062934202D964
:101158004FF47A737B6101F05DFE7B6907EE903A8C
:10116800F8EE677A9FED557A67EE877A544BC3EDB0
:10117800007A534B1B68534A1360514B93ED007A26
:10118800F7EE006AC6EE877A4F4BC3ED007A02F09D
:101198001DF84B4B1B684D4A93614C494C4800F075
:1011A8008BFE4C494A4801F0FBF8494B93F83C3018
:1011B800012B3CD1484B1B68B3F5FA7F37D2464B1D
:1011C8001B680133444A1360434B1B68B3F5FA7F2D
:1011D8002DD13F4B9B693E4A93653D4BDB693C4AA9
:1011E800D3653B4B9B6D1846FFF756F930A3D3E9FF
:1011F8000023FFF7A9F902460B4610461946FFF7E8
:101208003DFC0346324AD364314BDB6D1846FFF789
:1012180043F927A3D3E90023FFF796F902460B46C3
:1012280010461946FFF72AFC0346294A1365284B3E
:10123800DB682A4A1360264B1B69294A1360244B32
:101248005B69284A1360386900F060F8264B1B6810
:101258003A69D31A632B02D9234A3B6913604FF0CA
:1012680080435A6AFB68D31A7B60204A7B68136004
:101278001F4B1B687A689A4202D91D4A7B68136023
:101288001C4B1B687A689A4202D91A4A7B68136019
:1012980000BF4FF080435A6AFB68D31AB3F57A7FD0
:1012A800F7D300BF00BF1837BD4680BDAFF300803D
:1012B800F8C1631ADCA54C402C030020BD378635E5
:1012C80034030020440300203803002004060020D3
:1012D8004400002034060020300300204C03002086
:1012E8005003002054030020280300203C03002062
:1012F80040030020480300200FB480B400AF00BFB3
:10130800BD465DF8047B04B07047000080B582B02C
:1013180000AF7860084B1B687A68D31AF92B07D995
:10132800054A7B6813604FF40051044803F0B5F890
:1013380000BF0837BD4680BD2403002000080240D6
:1013480080B594B000AF07F1200330220021184681
:1013580006F0AFFE07F10C0300221A605A609A608B
:10136800DA601A610023BB60274B1B6C264A43F0E6
:1013780080531364244B1B6C03F08053BB60BB6821
:1013880000237B60214B1B68204A43F440431360D1
:101398001E4B1B6803F440437B607B6801233B6260
:1013A8004FF480337B620223BB634FF48003FB63FB
:1013B80019233B64C0237B640223BB640423FB64BE
:1013C80007F12003184604F0A7F80346002B01D0C4
:1013D80000F01EF80F23FB6002233B6100237B61B2
:1013E8004FF48053BB610023FB6107F10C03032119
:1013F800184604F009FB0346002B01D000F008F85A
:1014080000BF5037BD4680BD003802400070004024
:1014180080B400AF72B600BF00BFFDE780B500AF73
:10142800054B1B78002B05D1044805F06DF9024BDC
:1014380001221A7000BF80BD5803002068040020F4
:1014480080B584B000AF7860FFF7E8FF4FF08043C5
:101458005B6AFB6000BF4FF080435A6AFB68D31A8F
:101468007A689A42F7D800BF00BF1037BD4680BDE2
:1014780080B582B000AF786003E04FF47A70FFF770
:10148800DFFF7B685A1E7A60002BF6D100BF00BFD1
:101498000837BD4680BD000080B582B000AF00238C
:1014A8007B601B4B1B6B1A4A43F400131363184BE6
:1014B8001B6B03F400137B607B6800233B60144BB9
:1014C8001B6B134A43F480031363114B1B6B03F428
:1014D80080033B603B68002200210B2002F0B7F834
:1014E8000B2002F0D0F800220021102002F0AFF803
:1014F800102002F0C8F8002200213A2002F0A7F8D4
:101508003A2002F0C0F800BF0837BD4680BD00BFD2
:101518000038024080B58AB000AF07F114030022FA
:101528001A605A609A60DA601A6100233B61314B95
:101538001B6B304A43F0040313632E4B1B6B03F001
:1015480004033B613B690023FB602A4B1B6B294A60
:1015580043F080031363274B1B6B03F08003FB608E
:10156800FB680023BB60234B1B6B224A43F001033B
:101578001363204B1B6B03F00103BB60BB680023A4
:101588007B601C4B1B6B1B4A43F002031363194B14
:101598001B6B03F002037B607B6800224FF4005151
:1015A800154802F061FF01221021144802F05CFF87
:1015B8004FF400537B610123BB610023FB610023CF
:1015C8003B6207F1140319460B4802F0E5FC1023AF
:1015D8007B610123BB610023FB6103233B6207F1AD
:1015E80014031946054802F0D7FC00BF2837BD464A
:1015F80080BD00BF003802400008024000000240E1
:1016080080B500AF124B134A1A60114B124A5A6048
:101618000F4B00229A600E4B0022DA600C4B4FF4FD
:1016280080421A610A4B00225A61094B00229A61D2
:10163800074B0022DA61064B00221A62044802F0C6
:1016480047FF0346002B01D0FFF7E2FE00BF80BD35
:101658005C03002000540040801A060080B58AB060
:1016680000AF786007F1140300221A605A609A608C
:10167800DA601A617B681B68314A93425BD10023A8
:101688003B61304B1B6B2F4A43F0020313632D4B16
:101698001B6B03F002033B613B694FF440737B61B2
:1016A8001223BB610023FB6103233B6204237B629B
:1016B80007F114031946244802F06EFC0023FB606E
:1016C800204B1B6C1F4A43F4001313641D4B1B6C07
:1016D80003F40013FB60FB681C4B1D4A1A601B4B8C
:1016E8004FF000725A60194B00229A60174B002283
:1016F800DA60164B4FF480621A61144B00225A616B
:10170800124B00229A61114B0022DA610F4B4FF401
:1017180080321A620D4B00225A620C4801F0DCFF3D
:101728000346002B01D0FFF773FE7B68074A9A63D4
:10173800064A7B68936300BF2837BD4680BD00BF5B
:10174800005400400038024000040240B00300206A
:101758001060024080B500AF174B184A1A60164B4C
:101768004FF482725A60144B00229A60124B002286
:10177800DA60114B02221A610F4B01225A610E4B9B
:101788004FF400729A610C4B1822DA610A4B00225E
:101798001A62094B00225A62074B00229A62064BD2
:1017A8000A22DA62044804F00DFB0346002B01D03C
:1017B800FFF72EFE00BF80BD10040020003001405E
:1017C80080B58AB000AF786007F1140300221A6070
:1017D8005A609A60DA601A617B681B68194A9342FA
:1017E8002BD100233B61184B5B6C174A43F48053A1
:1017F8005364154B5B6C03F480533B613B690023D6
:10180800FB60114B1B6B104A43F0010313630E4B33
:101818001B6B03F00103FB60FB68E0237B61022381
:10182800BB610023FB6103233B6205237B6207F155
:1018380014031946054802F0AFFB00BF2837BD4620
:1018480080BD00BF00300140003802400000024067
:1018580080B483B000AF00237B60104B5B6C0F4AF1
:1018680043F4804353640D4B5B6C03F480437B600B
:101878007B6800233B60094B1B6C084A43F080538C
:101888001364064B1B6C03F080533B603B6800BF3E
:101898000C37BD465DF8047B704700BF0038024036
:1018A80080B400AF00BFFDE780B400AF00BFFDE724
:1018B80080B400AF00BFFDE780B400AF00BFFDE714
:1018C80080B400AF00BFFDE780B400AF00BFBD46E5
:1018D8005DF8047B704780B400AF00BFBD465DF87B
:1018E800047B704780B400AF00BFBD465DF8047B41
:1018F800704780B500AF01F08BFD00BF80BD0000D0
:1019080080B500AF024802F0DDF800BF80BD00BF1F
:10191800B003002080B500AF024802F0D3F800BF42
:1019280080BD00BFA005002080B500AF024805F0CB
:10193800F5FA00BF80BD00BFB004002080B500AF3D
:10194800024805F0EBFA00BF80BD00BFF804002094
:1019580080B500AF024802F0B5F800BF80BD00BFF7
:101968004005002080B400AF064BD3F88830054A04
:1019780043F47003C2F8883000BFBD465DF8047BAD
:10198800704700BF00ED00E080B586B000AF07F1FA
:10199800080300221A605A609A60DA603B46002207
:1019A8001A605A601D4B4FF080421A601B4B5F2231
:1019B8005A601A4B00229A60184B4FF0FF32DA60D7
:1019C800164B00221A61154B00229A61134804F045
:1019D8004BFE0346002B01D0FFF71AFD4FF480534E
:1019E800BB6007F1080319460C4804F0E7FE0346FC
:1019F800002B01D0FFF70CFD00233B6000237B6028
:101A08003B461946054805F0C1F80346002B01D0AE
:101A1800FFF7FEFC00BF1837BD4680BD68040020F4
:101A280080B487B000AF78607B681B68B3F1804FE3
:101A38000ED100237B611D4B1B6C1C4A43F0010334
:101A480013641A4B1B6C03F001037B617B6926E06E
:101A58007B681B68164A93420ED100233B61134BE7
:101A68001B6C124A43F002031364104B1B6C03F007
:101A780002033B613B6912E07B681B680D4A934295
:101A88000DD10023FB60094B1B6C084A43F004038B
:101A98001364064B1B6C03F00403FB60FB6800BF78
:101AA8001C37BD465DF8047B704700BF0038024014
:101AB800000400400008004080B500AF114B124AF6
:101AC8001A60104B4FF4E1325A600E4B00229A60B4
:101AD8000C4B0022DA600B4B00221A61094B0C22D6
:101AE8005A61084B00229A61064B0022DA610548C8
:101AF80005F0BAF80346002B01D0FFF789FC00BFB8
:101B080080BD00BFB00400200010014080B58CB03B
:101B180000AF786007F11C0300221A605A609A60CF
:101B2800DA601A617B681B686A4A934265D10023B0
:101B3800BB61694B5B6C684A43F010035364664BA6
:101B48005B6C03F01003BB61BB6900237B61624BD4
:101B58001B6B614A43F0010313635F4B1B6B03F07C
:101B680001037B617B694FF4C063FB6102233B6225
:101B780000237B620323BB620723FB6207F11C037C
:101B88001946564802F008FA554B564A1A60544B03
:101B98004FF000625A60524B00229A60504B00226C
:101BA800DA604F4B4FF480621A614D4B00225A6144
:101BB8004B4B00229A614A4B4FF48072DA61484BD2
:101BC8004FF480321A62464B00225A62444801F0B0
:101BD80083FD0346002B01D0FFF71AFC7B68404ABF
:101BE800DA633F4A7B68936300220021252001F0D5
:101BF8002EFD252001F047FD68E07B681B683A4A06
:101C0800934263D100233B61334B1B6C324A43F44C
:101C180000331364304B1B6C03F400333B613B69A6
:101C28000023FB602C4B1B6B2B4A43F0010313630F
:101C3800294B1B6B03F00103FB60FB680C23FB6162
:101C480002233B6200237B620323BB620723FB6200
:101C580007F11C031946214802F09EF9234B244A38
:101C68001A60224B4FF000625A60204B00229A60A3
:101C78001E4B0022DA601D4B4FF480621A611B4B29
:101C880000225A61194B00229A61184B4FF4807256
:101C9800DA61164B4FF480321A62144B00225A62F2
:101CA800124801F019FD0346002B01D0FFF7B0FBE5
:101CB8007B680E4ADA630D4A7B6893630022002131
:101CC800262001F0C4FC262001F0DDFC00BF3037DF
:101CD800BD4680BD001001400038024000000240AF
:101CE800400500204064024000440040A005002058
:101CF8008860024080B582B000AF78607B681B685E
:101D0800184A934213D1184B5B6C174A23F01003FF
:101D180053644FF4C061154802F0C2FA7B68DB6B6C
:101D2800184601F087FD252001F0BBFC16E07B6812
:101D38001B680F4A934211D10B4B1B6C0A4A23F4C0
:101D4800003313640C21094802F0AAFA7B68DB6BA4
:101D5800184601F06FFD262001F0A3FC00BF0837EC
:101D6800BD4680BD0010014000380240000002401E
:101D7800004400400000000080B584B000AF87ED4B
:101D8800010AC7ED000A97ED017AD7ED007A77EEE0
:101D9800677AC7ED037A0FE0F868FEF77DFB1EA3AC
:101DA800D3E90023FEF718FA02460B4610461946F7
:101DB800FEF764FE0346FB60F868FEF76DFB18A3A8
:101DC800D3E90023FEF750FE0346002BE4D10FE0D1
:101DD800F868FEF761FB10A3D3E90023FEF7FEF9CC
:101DE80002460B4610461946FEF748FE0346FB60BE
:101DF800F868FEF751FB0CA3D3E90023FEF716FEA3
:101E08000346002BE4D1FB6807EE903AB0EE670A70
:101E18001037BD4680BD00BF182D4454FB21194022
:101E2800182D4454FB210940182D4454FB2109C0A6
:101E380080B485B000AF78600023FB6013E07A6857
:101E4800FB6802339B00134404334FF000021A600E
:101E58007A68FB6806339B0013444FF000021A604F
:101E6800FB680133FB60FB68022BE8DD7B684FF001
:101E78007E525A627B684FF000029A627B684FF08C
:101E88000002DA627B684FF000021A637B68002266
:101E98009A637B6800225A637B68002283F83C209F
:101EA8007B68002283F83D2000BF1437BD465DF8EB
:101EB800047B70470000000080B52DED028B94B0C4
:101EC80000AF786039603B6893ED037A3B68D3EDE7
:101ED800037A27EE277A3B68D3ED046A3B68D3ED93
:101EE800047A66EEA77A37EE277A3B68D3ED056A5F
:101EF8003B68D3ED057A66EEA77A77EE277AC7EDC9
:101F0800107AD7ED107A9FED547AF4EEC77AF1EE95
:101F180010FA00F1268297ED100A06F011F987ED04
:101F28000F0A3B68D3ED036A97ED0F7AC6EE877AFE
:101F3800C7ED0E7A3B68D3ED046A97ED0F7AC6EECB
:101F4800877AC7ED0D7A3B68D3ED056A97ED0F7A6E
:101F5800C6EE877AC7ED0C7A3B681B68FB623B6864
:101F68005B68BB623B689B687B627B6893F83C302C
:101F7800032B00F2F88101A252F823F0951F000804
:101F8800692000086F23000863230008D7ED0D7A45
:101F9800B1EE677AD7ED0C7AF1EE677AF0EE670A60
:101FA800B0EE470A06F0CAF8F0EE407A7B68C3ED57
:101FB800067AD7ED0D7A27EEA77AD7ED0C7A67EE79
:101FC800A77A77EE277AB0EE670A06F0B9F8F0EE4E
:101FD800407AF0EE670A97ED0E0A06F0AFF8F0EED9
:101FE800407A7B68C3ED077A7B684FF000021A627B
:101FF8007B689B691846FEF74FFA15A3D3E90023BF
:10200800FEF7A2FA02460B4610461946FEF736FDC1
:1020180002467B68DA607B68DB691846FEF73CFAA3
:102028000BA3D3E90023FEF78FFA02460B461046AE
:102038001946FEF723FD02467B681A617B684FF05C
:1020480000025A617B68012283F83C208EE100BFC0
:10205800F8C1631ADCA54C40BD37863517B7D138AF
:10206800D7ED0D7AB1EE677AD7ED0C7AF1EE677A93
:10207800F0EE670AB0EE470A06F060F887ED080A46
:10208800D7ED0D7A27EEA77AD7ED0C7A67EEA77A07
:1020980077EE277AB0EE670A06F052F8F0EE407A4B
:1020A800F0EE670A97ED0E0A06F048F887ED070A82
:1020B8007B689B69BB617B68DB697B6197ED050A7F
:1020C80006F060F887ED130A97ED050A06F0CCF8DC
:1020D80087ED120AD7ED137AF0EEE77A1FED217A31
:1020E800F4EEC77AF1EE10FA04D5AB4BFB644FF06F
:1020F8000003BB6497ED060A06F07CF8B0EE407A60
:10210800D7ED127A27EE277AD7ED0A7A27EE277AC3
:10211800D7ED0B7A37EE278A97ED060A06F032F8E4
:10212800B0EE407AD7ED127A27EE277AD7ED097A02
:1021380067EE277A78EE277AC7ED047A97ED060AD4
:1021480006F020F8B0EE407AD7ED0A7A27EE278A13
:1021580097ED060A06F04EF8B0EE407AD7ED097A08
:1021680067EE277A78EE677AC7ED037A97ED060A65
:1021780006F040F8B0EE407AD7ED0A7A27EE278AC3
:1021880097ED060A05F0FEFFB0EE407AD7ED097A22
:1021980067EE277A78EE276A97ED137AC6EE877A84
:1021A800C7ED027A7B6893ED067A3B68D3ED066A41
:1021B800D7ED047A66EEA77A77EE277A7B68C3EDC7
:1021C800067A7B6893ED077A3B68D3ED066AD7ED0C
:1021D800037A66EEA77A77EE277A7B68C3ED077AEB
:1021E8007B6893ED087A3B68D3ED066AD7ED027AEF
:1021F80066EEA77A77EE277A7B68C3ED087A7B6864
:1022080093ED007A7B68D3ED067A27EE277A7B6810
:10221800D3ED007AF7EE006A76EEE76AD7ED087A32
:1022280066EEA77A77EE277A7B68C3ED067A7B6835
:1022380093ED017A7B68D3ED077A27EE277A7B68DE
:10224800D3ED017AF7EE006A76EEE76AD7ED077A02
:1022580066EEA77A77EE277A7B68C3ED077A7B6804
:102268001B6A1846FEF718F943A3D3E90023FEF7C3
:10227800FBFB0346002B12D07B681B6A1846FEF74F
:102288000BF93FA3D3E90023FDF7A6FF02460B464F
:1022980010461946FEF7F2FB02467B681A627B6815
:1022A8001B6A1846FEF7F8F837A3D3E90023FEF7B0
:1022B800BDFB0346002B12D07B681B6A1846FEF74D
:1022C800EBF82FA3D3E90023FDF788FF02460B465E
:1022D80010461946FEF7D2FB02467B681A620023B5
:1022E8007B6429E07A687B6C06339B00134493ED8A
:1022F800007A7A687B6C16339B001344D3ED007A1E
:1023080077EE677A17EE900AFEF7C6F820A3D3E9AE
:102318000023FEF719F902460B4610461946FEF748
:10232800ADFB01467A687B6C02339B00134404338F
:1023380019607B6C01337B647B6C022BD2DD7B687C
:102348009B6B5A1C7B689A637B689B6B642B0CD9CC
:102358007B68012283F83D2007E07868FFF768FD75
:1023680004E000BF02E000BF00E000BF5037BD46F8
:10237800BDEC028B80BD00BF182D4454FB210940E1
:10238800182D4454FB211940182D4454FB2109C031
:10239800F8C1631ADCA54C4017B7D138000000001B
:1023A80080B590B000AF786039603B681B68FB630C
:1023B8003B685B68BB633B689B687B63D7ED0F7AC0
:1023C80027EEA77AD7ED0E7A67EEA77A37EE277A47
:1023D800D7ED0D7A67EEA77A77EE277AB0EE670A1F
:1023E80005F0AEFE87ED0C0AD7ED0C7A9FED8A7AE0
:1023F800F4EEC77AF1EE10FA00F1F980D7ED0F6A22
:1024080097ED0C7AC6EE877AC7ED0F7AD7ED0E6A8C
:1024180097ED0C7AC6EE877AC7ED0E7AD7ED0D6A7E
:1024280097ED0C7AC6EE877AC7ED0D7A7B689B69C3
:10243800FB627B68DB69BB6297ED0B0A05F0A2FEC5
:1024480087ED090A97ED0B0A05F0D4FE87ED080A17
:1024580097ED0A0A05F096FE87ED070A97ED0A0A36
:1024680005F0C8FE87ED060A97ED0F7AD7ED077AD3
:1024780027EE277AD7ED0E6AD7ED087A66EEA76AB7
:10248800D7ED067A66EEA77A37EE277AD7ED0D6A8A
:10249800D7ED097A66EEA76AD7ED067A66EEA77ACF
:1024A80077EE277AC7ED057A97ED0E7AD7ED097A98
:1024B80027EE277AD7ED0D6AD7ED087A66EEA77A68
:1024C80077EE677AC7ED047AD7ED047AF1EE677A8A
:1024D800D7ED050AB0EE670A05F030FE87ED030A6E
:1024E8007B685B6B002B03D17B68FA681A625EE03D
:1024F8007B68D3ED087AF0EE670A97ED030AFFF7D9
:102508003BFC87ED020A7B6893ED087A7B68D3ED84
:10251800027AF7EE006A76EEE76AD7ED027A66EE9F
:10252800A77A77EE277A7B68C3ED087A7B681B6AFF
:102538001846FDF7B1FF30A3D3E90023FEF794FA5C
:102548000346002B13D07B681B6A1846FDF7A4FFCF
:102558002BA3D3E90023FDF73FFE02460B461046A6
:102568001946FEF78BFA02467B681A621FE07B6801
:102578001B6A1846FDF790FF23A3D3E90023FEF753
:1025880055FA0346002B12D07B681B6A1846FDF7E4
:1025980083FF1BA3D3E90023FDF720FE02460B4669
:1025A80010461946FEF76AFA02467B681A627B688B
:1025B80093ED087A7B68D3ED187A77EE677A17EE91
:1025C800900AFDF769FF12A3D3E90023FDF7BCFFCA
:1025D80002460B4610461946FEF750FA02467B683B
:1025E8005A617B685B6B5A1C7B685A6300E000BFCA
:1025F8004037BD4680BD00BF182D4454FB2109401B
:10260800182D4454FB211940182D4454FB2109C0AE
:10261800F8C1631ADCA54C40BD37863580B500AFDC
:1026280000221021024801F01FFF00BF80BD00BF3B
:102638000000024080B500AF01221021024801F0DD
:1026480013FF00BF80BD00BF0000024080B584B00A
:1026580000AF03460A46FB711346BB71FB7903F0D2
:102668007F03DBB23B73BB797B73FFF7D7FF07F1BF
:102678000C0114230222064803F02DFC0346FB73C9
:10268800FFF7D8FFFB7B18461037BD4680BD00BF5B
:102698001004002080B58EB002AF03463960FB718C
:1026A8001346BB8007F11C0300221A605A609A6027
:1026B800C3F80B2007F10C0300221A605A609A60D5
:1026C800C3F80B20BB88002B02D0BB880E2B01D986
:1026D800012333E0FB7963F07F03DBB23B77FFF73D
:1026E8009DFFBB8801339BB207F10C0207F11C0167
:1026F80014200090134803F032FD034687F82D306C
:10270800FFF798FF97F82D30002B02D097F82D305F
:1027180014E00023FB850CE0FB8D5A1CFB8D396807
:102728000B4430323A4412F8242C1A70FB8D0133D2
:10273800FB85FA8DBB889A42EED3002318463037C2
:10274800BD4680BD1004002080B582B000AF0346AE
:102758003960FB71FB79012239681846FFF79AFF47
:10276800034618460837BD4680BD0000000000003B
:1027780080B58AB000AF78607B681B781BB21B02FB
:102788001AB27B6801331B781BB213431AB2B64BDB
:102798001A807B6802331B781BB21B021AB27B6853
:1027A80003331B781BB213431AB2AF4B5A807B68B2
:1027B80004331B781BB21B021AB27B6805331B78E3
:1027C8001BB213431AB2A84B9A807B6808331B7854
:1027D8001BB21B021AB27B6809331B781BB2134366
:1027E8001AB2A24B1A807B680A331B781BB21B02F1
:1027F8001AB27B680B331B781BB213431AB29B4B7C
:102808005A807B680C331B781BB21B021AB27B6898
:102818000D331B781BB213431AB2944B9A80944B16
:102828001B78002B54D0904BB3F9003007EE903A48
:10283800B8EEE77A8F4BD3ED007A77EE677AC7ED7B
:10284800067A894BB3F9023007EE903AB8EEE77A88
:10285800884BD3ED017A77EE677AC7ED077A824B1A
:10286800B3F9043007EE903AB8EEE77A814BD3ED2E
:10287800027A77EE677AC7ED087A7C4BB3F90030B5
:1028880007EE903AB8EEE77A7B4BD3ED007A77EE15
:10289800677AC7ED037A754BB3F9023007EE903AC1
:1028A800B8EEE77A744BD3ED017A77EE677AC7ED25
:1028B800047A6E4BB3F9043007EE903AB8EEE77A33
:1028C8006D4BD3ED027A77EE677AC7ED057A35E07E
:1028D800654BB3F9003007EE903AF8EEE77AC7EDAA
:1028E800067A614BB3F9023007EE903AF8EEE77AD0
:1028F800C7ED077A5C4BB3F9043007EE903AF8EE6F
:10290800E77AC7ED087A594BB3F9003007EE903AE9
:10291800F8EEE77AC7ED037A544BB3F9023007EEC5
:10292800903AF8EEE77AC7ED047A504BB3F90430E1
:1029380007EE903AF8EEE77AC7ED057A97ED067A52
:10294800DFED4E6AC7EE267A9FED4D7A67EE877AFD
:102958004C4BC3ED007A97ED077ADFED486AC7EE76
:10296800267AF1EE677A9FED467A67EE877A454BCD
:10297800C3ED017A97ED087ADFED406AC7EE267A53
:10298800F1EE677A9FED3E7A67EE877A3D4BC3EDAD
:10299800027AD7ED037A9FED3C7AC7EE876A16EE86
:1029A800900AFDF779FD2EA3D3E90023FDF7CCFDAE
:1029B80002460B4610461946FEF760F80346334AAE
:1029C800136097ED047ADFED306AC7EE267AF1EEF0
:1029D800677A17EE903A1846FDF75EFD20A3D3E913
:1029E8000023FDF7B1FD02460B4610461946FEF7D7
:1029F80045F80346254A536097ED057ADFED226ACC
:102A0800C7EE267AF1EE677A17EE903A1846FDF788
:102A180043FD13A3D3E90023FDF796FD02460B46B9
:102A280010461946FEF72AF80346184A9360184BD1
:102A38001B78002B0FD1134B1B68164A1360114BE0
:102A48005B68144A53600F4B9B68124A9360104BA3
:102A580001221A7047E000237B6241E0AFF3008057
:102A6800E49C52A246DF913F440600204C06002019
:102A7800AC060020A0060020940600200000804636
:102A88000AE81C41540600200000034360060020A9
:102A98000106002078060020404A7B6A9B00134408
:102AA80093ED007A3E4A7B6A9B001344D3ED006A9B
:102AB8003A4A7B6A9B001344D3ED007A76EEE76AC4
:102AC800384BD3ED007A66EEA77A77EE277A334A49
:102AD8007B6A9B001344C3ED007A7B6A01337B62F7
:102AE8007B6A022BD8DD304B1B78002B0FD12F4B84
:102AF8001B682F4A13602D4B5B682D4A53602B4B84
:102B08009B682B4A9360284B01221A7029E0002306
:102B18007B6223E0264A7B6A9B00134493ED007A8C
:102B2800224A7B6A9B001344D3ED006A204A7B6AE1
:102B38009B001344D3ED007A76EEE76A1D4BD3ED84
:102B4800007A66EEA77A77EE277A194A7B6A9B00A5
:102B58001344C3ED007A7B6A01337B627B6A022BE4
:102B6800D8DD0E4B1B68144AD3600C4B5B68124AC5
:102B780013610A4B9B68104A53610D4B1B680E4A40
:102B880013600B4B5B680C4A5360094B9B680A4AFD
:102B9800936000BF2837BD4680BD00BF780600207F
:102BA8005406002058940008020600206006002001
:102BB8006C0600205C9400080406002080B582B0F2
:102BC80000AF0023FB713F4B00221A703E4B0022DE
:102BD8001A70FFF72FFD0A20FEF74AFC80216B20B0
:102BE800FFF734FD0346002B53D16420FEF740FC69
:102BF80001216B20FFF72AFD0346002B4BD1002152
:102C08006C20FFF723FD0346002B46D101216A20E3
:102C1800FFF71CFD0346002B41D140217020FFF730
:102C280015FD0346002B3CD105211A20FFF70EFDA8
:102C38000346002B37D100211920FFF707FD034673
:102C4800002B32D100211B20FFF700FD0346002B8B
:102C58002DD100211C20FFF7F9FC0346002B28D1B9
:102C680005211D20FFF7F2FC0346002B23D1142079
:102C7800FEF7FEFBFB1D19467520FFF765FD0346B1
:102C8800002B1AD1FB79122B18D10E4B01221A7086
:102C980014E000BF12E000BF10E000BF0EE000BF6C
:102CA8000CE000BF0AE000BF08E000BF06E000BF7C
:102CB80004E000BF02E000BF00E000BF0837BD46E7
:102CC80080BD00BF00060020AC06002080B58AB099
:102CD80000AF3B1D00221A605A609A6000237B6295
:102CE800424B1B78002B7BD000233B6234E007F17A
:102CF80010030E2219463B20FFF7CCFC0346002B9D
:102D080023D17B683A7E12B2120211B27A7E12B2D5
:102D18000A4312B213447B60BB68BA7E12B2120235
:102D280011B2FA7E12B20A4312B21344BB60FB68B6
:102D38003A7F12B2120211B27A7F12B20A4312B269
:102D48001344FB607B6A01337B624FF4FA60FEF741
:102D580077FB3B6A01333B623B6AB3F57A7FC6D3A4
:102D68007B6A002B3ED07B6807EE903AF8EEE76A64
:102D78007B6A07EE903AB8EE677AC6EE877A1C4B04
:102D8800C3ED007ABB6807EE903AF8EEE76A7B6A13
:102D980007EE903AB8EE677AC6EE877A144BC3ED21
:102DA800017AFB6807EE903AF8EEE76A7B6A07EE6D
:102DB800903AB8EE677AC6EE877A0D4BC3ED027A81
:102DC8000C4B4FF000021A600A4B4FF000025A6099
:102DD800084B4FF000029A60074B01221A7002E07C
:102DE80000BF00E000BF2837BD4680BD00060020B8
:102DF80094060020A0060020AC06002080B400AF96
:102E0800034B1B781846BD465DF8047B704700BF2E
:102E18000006002080B584B000AF0B4B1B78002B58
:102E28000DD03B460E2219463B20FFF733FC0346E4
:102E3800002B05D13B461846FFF79AFC00E000BF7F
:102E48001037BD4680BD00BF0006002080B58AB09F
:102E580000AFF860B9607A60FB681B78042B00F259
:102E68000E8101A252F823F0852E0008B12E000829
:102E7800EF2E0008972F000879300008FB688C4A6D
:102E88001A62FB688B4A5A62FB688B4A9A62FB6833
:102E98008A4ADA62FB688A4A1A63FB68894A5A6373
:102EA800FB6804221A70EAE000237B6211E0FA68EA
:102EB8007B6A02339B001344834A1A60FA687B6A70
:102EC80004339B0013440433804A1A607B6A01333D
:102ED8007B627B6A022BEADDFB6800229A63FB684F
:102EE80002221A70CBE000237B623EE0BA687B6A5C
:102EF8009B00134493ED007AFA687B6A02339B00C7
:102F08001344D3ED007AB4EEE77AF1EE10FA0AD55D
:102F1800BA687B6A9B0013441A68F9687B6A0233B3
:102F28009B000B441A60BA687B6A9B00134493EDBC
:102F3800007AFA687B6A04339B0013440433D3EDA8
:102F4800007AB4EEE77AF1EE10FA0BDDBA687B6A24
:102F58009B0013441A68F9687B6A04339B000B448E
:102F680004331A607B6A01337B627B6A022BBDDD06
:102F7800FB689B6B5A1CFB689A63FB689A6BFB683F
:102F8800DB6B9A427AD3FB6803221A7076E000233F
:102F98007B623AE0FA687B6A04339B00134404338B
:102FA80093ED007AFA687B6A02339B001344D3EDF1
:102FB800007A77EE277AB6EE007A67EE877AFA68B3
:102FC8007B6A08339B001344C3ED007AFA687B6A76
:102FD80004339B001344043393ED007AFA687B6A48
:102FE80002339B001344D3ED007A77EE677AB6EE8E
:102FF800007A67EE877A7B6A9B0028333B44143B50
:10300800C3ED007A7B6A01337B627B6A022BC1DDE8
:1030180097ED057AD7ED067A37EE277AD7ED077A56
:1030280037EE277AF0EE086AC7EE267AC7ED087AF7
:1030380000237B6215E07B6A9B0028333B44143BEA
:1030480093ED007AD7ED086AC6EE877AFA687B6A4C
:103058000A339B0013440433C3ED007A7B6A0133BF
:103068007B627B6A022BE6DDFB6804221A7006E0AD
:103078007A68B968F86800F02BF800E000BFFB68D0
:103088001B78042B0FD000237B6209E07A687B6AE7
:103098009B0013444FF000021A607B6A01337B6285
:1030A8007B6A022BF2DD00BF2837BD4680BD00BF1A
:1030B80088169940D0CC5CC02085EB40ACE56F3FCA
:1030C8006B45743FD5A7903F286B6E4E286B6ECE2C
:1030D80080B487B000AFF860B9607A6000237B6184
:1030E80032E0BA687B699B00134493ED007AFA6872
:1030F8007B6908339B001344D3ED007A77EE677A37
:10310800C7ED047AFA687B690A339B0013440433D9
:10311800D3ED007A97ED047A67EE277AC7ED047A43
:10312800FB68D3ED017AF7EE006A86EEA77AD7ED51
:10313800047A67EE277A7A687B699B001344C3EDAB
:10314800007A7B6901337B617B69022BC9DD00BF93
:1031580000BF1C37BD465DF8047B704780B586B05C
:1031680004AF7023FB716423029301230193FB1DB9
:103178000093012300223C21134801F0EDFA20239B
:10318800FB716423029301230193FB1D0093012328
:1031980001223C210C4801F0DFFA0023FB71642373
:1031A800029301230193FB1D0093012302223C217A
:1031B800054801F0D1FA42F21070FEF741F900BF5C
:1031C8000837BD4680BD00BF5C03002080B588B0CD
:1031D80004AF64230293062301933B1D009301234C
:1031E80003223C21594801F0B1FB0346002B40F073
:1031F800A8803B791BB21B021AB27B791BB213431E
:10320800FB81BB791BB21B021AB2FB791BB21343B9
:10321800BB813B7A1BB21B021AB27B7A1BB21343E7
:103228007B81B7F90E3007EE903AF8EEE77AF1EEC7
:10323800677A9FED477A67EE877A464BC3ED007A47
:10324800B7F90A3007EE903AF8EEE77A9FED407A40
:1032580067EE877A3F4BC3ED017AB7F90C3007EE7A
:10326800903AF8EEE77AF1EE677A9FED397A67EEF1
:10327800877A384BC3ED027A374A36493748FFF721
:10328800E5FD364B1B78042B5BD1354B1B78002BA7
:103298000FD1314B1B68334A13602F4B5B68314A9F
:1032A80053602D4B9B682F4A93602D4B01221A7057
:1032B8003BE02C4B93ED007A274BD3ED006A294B6A
:1032C800D3ED007A76EEE77ADFED276A67EEA67A25
:1032D80077EE277A234BC3ED007A224B93ED017AE0
:1032E8001D4BD3ED016A1F4BD3ED017A76EEE77AD9
:1032F800DFED1D6A67EEA67A77EE277A194BC3EDE4
:10330800017A184B93ED027A134BD3ED026A154BF1
:10331800D3ED027A76EEE77ADFED136A67EEA67AE6
:1033280077EE277A0F4BC3ED027A0E4B1B680A4AD9
:1033380013600C4B5B68084A53600A4B9B68064A4B
:10334800936000BF1037BD4680BD00BF5C030020FE
:103358007F6ABC3D240600203406002004000020BB
:1033680090060020840600200AD7A33D80B500AF50
:103378000E4B1B680D4A43F4007313600B4B1B681C
:103388000A4A43F480631360084B1B68074A43F4F6
:1033980080731360032000F04FF90F2000F008F845
:1033A800FEF756FA0023184680BD00BF003C0240D5
:1033B80080B582B000AF7860124B1A68124B1B7848
:1033C80019464FF47A73B3FBF1F3B2FBF3F31846E3
:1033D80000F075F90346002B01D001230EE07B684D
:1033E8000F2B0AD8002279684FF0FF3000F02FF930
:1033F800064A7B681360002300E00123184608375B
:10340800BD4680BD00000020AC000020A8000020C0
:1034180080B400AF064B1B781A46064B1B68134452
:10342800044A136000BFBD465DF8047B704700BFC7
:10343800AC000020B006002080B400AF034B1B682E
:103448001846BD465DF8047B704700BFB0060020F3
:1034580080B485B000AF78607B6803F00703FB6039
:103468000C4BDB68BB60BA684FF6FF031340BB60C8
:10347800FB681A02BB68134343F0BF6343F400338D
:10348800BB60044ABB68D36000BF1437BD465DF813
:10349800047B704700ED00E080B400AF044BDB68AC
:1034A8001B0A03F007031846BD465DF8047B704706
:1034B80000ED00E080B483B000AF0346FB7197F9DC
:1034C8000730002B0BDBFB7903F01F02074997F944
:1034D80007305B09012000FA02F241F8232000BFFF
:1034E8000C37BD465DF8047B704700BF00E100E083
:1034F80080B483B000AF0346FB7197F90730002B07
:1035080012DBFB7903F01F020A4997F907305B09C0
:10351800012000FA02F2203341F82320BFF34F8F35
:1035280000BFBFF36F8F00BF00BF0C37BD465DF80B
:10353800047B704700E100E080B483B000AF03462D
:103548003960FB7197F90730002B0ADB3B68DAB268
:103558000C4997F907301201D2B20B4483F80023C3
:103568000AE03B68DAB20849FB7903F00F03043B31
:103578001201D2B20B441A7600BF0C37BD465DF873
:10358800047B704700E100E000ED00E080B489B002
:1035980000AFF860B9607A60FB6803F00703FB616D
:1035A800FB69C3F10703042B28BF0423BB61FB6934
:1035B8000433062B02D9FB69033B00E000237B613F
:1035C8004FF0FF32BB6902FA03F3DA43BB681A40D3
:1035D8007B699A404FF0FF317B6901FA03F3D943C5
:1035E8007B680B40134318462437BD465DF8047BBF
:1035F8007047000080B582B000AF78607B68013BFF
:10360800B3F1807F01D301230FE00A4A7B68013BB5
:1036180053600F214FF0FF30FFF78EFF054B00225C
:103628009A60044B07221A60002318460837BD46E3
:1036380080BD00BF10E000E080B582B000AF7860C8
:103648007868FFF705FF00BF0837BD4680BD80B525
:1036580086B000AF0346B9607A60FB7300237B61D4
:10366800FFF71AFF78617A68B9687869FFF78EFF03
:10367800024697F90F3011461846FFF75DFF00BF65
:103688001837BD4680BD80B582B000AF0346FB71D8
:1036980097F907301846FFF70DFF00BF0837BD46FA
:1036A80080BD80B582B000AF0346FB7197F9073043
:1036B8001846FFF71DFF00BF0837BD4680BD80B51F
:1036C80082B000AF78607868FFF794FF0346184629
:1036D8000837BD4680BD000080B586B000AF786071
:1036E80000237B61FFF7A8FE38617B68002B01D1BE
:1036F800012399E07B68022283F835207B68002249
:1037080083F834207B681B681A687B681B6822F082
:1037180001021A600FE0FFF78FFE02463B69D31AD9
:10372800052B08D97B6820225A657B68032283F819
:103738003520032378E07B681B681B6803F00103CE
:10374800002BE8D17B681B681B687B617A69384B62
:1037580013407B617B685A687B689B681A437B6867
:10376800DB681A437B681B691A437B685B691A43E9
:103778007B689B691A437B68DB691A437B681B6A11
:1037880013437A6913437B617B685B6A042B07D117
:103798007B68DA6A7B681B6B13437A6913437B6126
:1037A8007B681B687A691A607B681B685B697B6148
:1037B8007B6923F007037B617B685B6A7A69134343
:1037C8007B617B685B6A042B17D17B689B6A7A698B
:1037D80013437B617B68DB6A002B0ED0786800F0AE
:1037E8005FFB0346002B08D07B6840225A657B6844
:1037F800012283F83520012316E07B681B687A696B
:103808005A61786800F016FB0346FB607B68DB6D45
:103818003F229A40FB689A607B6800225A657B6861
:10382800012283F83520002318461837BD4680BD8D
:103838003F8010F080B584B000AF78607B68002BC3
:1038480001D1012350E07B6893F83530DBB2022BBD
:1038580001D1022348E07B681B681A687B681B68F3
:1038680022F001021A607B681B6800221A607B68DC
:103878001B6800225A607B681B6800229A607B687C
:103888001B680022DA607B681B6800221A617B686B
:103898001B6821225A61786800F0CCFA0346FB6065
:1038A8007B680022DA637B6800221A647B68002246
:1038B8005A647B6800229A647B680022DA647B6819
:1038C80000221A657B68DB6D3F229A40FB689A608C
:1038D8007B6800225A657B68002283F835207B6864
:1038E800002283F83420002318461037BD4680BDD7
:1038F80080B586B000AFF860B9607A603B6000239D
:10390800FB75FB689B6D3B61FB6893F83430012BBA
:1039180001D1022340E0FB68012283F83420FB68D0
:1039280093F83530DBB2012B2FD1FB68022283F8E4
:103938003520FB6800225A653B687A68B968F868E0
:1039480000F04AFAFB68DB6D3F229A403B699A60B7
:10395800FB681B681A68FB681B6842F016021A604D
:10396800FB681B6C002B07D0FB681B681A68FB6898
:103978001B6842F008021A60FB681B681A68FB683B
:103988001B6842F001021A6005E0FB68002283F818
:1039980034200223FB75FB7D18461837BD4680BDD1
:1039A80080B584B000AF78607B689B6DFB60FFF7E3
:1039B80043FDB8607B6893F83530DBB2022B08D042
:1039C8007B6880225A657B68002283F834200123B3
:1039D80052E07B681B681A687B681B6822F0160235
:1039E8001A607B681B685A697B681B6822F0800232
:1039F8005A617B681B6C002B03D17B689B6C002B86
:103A080007D07B681B681A687B681B6822F008026D
:103A18001A607B681B681A687B681B6822F00102C1
:103A28001A6013E0FFF708FD0246BB68D31A052B9E
:103A38000CD97B6820225A657B68032283F83520DD
:103A48007B68002283F83420032315E07B681B6819
:103A58001B6803F00103002BE4D17B68DB6D3F2278
:103A68009A40FB689A607B68012283F835207B685E
:103A7800002283F83420002318461037BD4680BD45
:103A880080B483B000AF78607B6893F83530DBB2E0
:103A9800022B04D07B6880225A6501230CE07B68E6
:103AA800052283F835207B681B681A687B681B68C9
:103AB80022F001021A60002318460C37BD465DF853
:103AC800047B704780B586B000AF78600023BB6088
:103AD8008E4B1B688E4AA2FB03239B0A7B617B6883
:103AE8009B6D3B613B691B68FB607B68DB6D082253
:103AF8009A40FB681340002B1AD07B681B681B6830
:103B080003F00403002B13D07B681B681A687B68DA
:103B18001B6822F004021A607B68DB6D08229A4059
:103B28003B699A607B685B6D43F001027B685A656C
:103B38007B68DB6D01229A40FB681340002B12D092
:103B48007B681B685B6903F08003002B0BD07B68E4
:103B5800DB6D01229A403B699A607B685B6D43F09C
:103B680002027B685A657B68DB6D04229A40FB6819
:103B78001340002B12D07B681B681B6803F00203FC
:103B8800002B0BD07B68DB6D04229A403B699A605E
:103B98007B685B6D43F004027B685A657B68DB6D6C
:103BA80010229A40FB681340002B43D07B681B68A7
:103BB8001B6803F00803002B3CD07B68DB6D1022E8
:103BC8009A403B699A607B681B681B6803F48023F2
:103BD800002B18D07B681B681B6803F40023002B9C
:103BE80008D17B681B6C002B24D07B681B6C786821
:103BF80098471FE07B689B6C002B1BD07B689B6CF5
:103C08007868984716E07B681B681B6803F4807324
:103C1800002B07D17B681B681A687B681B6822F039
:103C280008021A607B681B6C002B03D07B681B6C36
:103C3800786898477B68DB6D20229A40FB681340C0
:103C4800002B00F08F807B681B681B6803F0100353
:103C5800002B00F087807B68DB6D20229A403B694F
:103C68009A607B6893F83530DBB2052B36D17B68D8
:103C78001B681A687B681B6822F016021A607B684A
:103C88001B685A697B681B6822F080025A617B684E
:103C98001B6C002B03D17B689B6C002B07D07B68C7
:103CA8001B681A687B681B6822F008021A607B6828
:103CB800DB6D3F229A403B699A607B68012283F85A
:103CC80035207B68002283F834207B681B6D002B2D
:103CD8007ED07B681B6D7868984779E07B681B68A5
:103CE8001B6803F48023002B1DD07B681B681B68AE
:103CF80003F40023002B0DD17B685B6C002B31D0C3
:103D08007B685B6C786898472CE000BF0000002057
:103D1800B5814E1B7B68DB6B002B23D07B68DB6B8C
:103D2800786898471EE07B681B681B6803F48073FB
:103D3800002B0FD17B681B681A687B681B6822F010
:103D480010021A607B68012283F835207B68002204
:103D580083F834207B68DB6B002B03D07B68DB6B3C
:103D6800786898477B685B6D002B32D07B685B6D09
:103D780003F00103002B22D07B68052283F835204D
:103D88007B681B681A687B681B6822F001021A604E
:103D9800BB680133BB607A699A4207D37B681B68AA
:103DA8001B6803F00103002BF2D100E000BF7B6821
:103DB800012283F835207B68002283F834207B6851
:103DC800DB6C002B05D07B68DB6C7868984700E0DB
:103DD80000BF1837BD4680BD80B485B000AFF8601D
:103DE800B9607A603B60FB681B681A68FB681B68EF
:103DF80022F480221A60FB681B683A685A60FB68E4
:103E08009B68402B08D1FB681B687A689A60FB683E
:103E18001B68BA68DA6007E0FB681B68BA689A60D2
:103E2800FB681B687A68DA6000BF1437BD465DF826
:103E3800047B704780B485B000AF78607B681B68EE
:103E4800DBB2103B144AA2FB03231B09FB60134A95
:103E5800FB6813441B781A467B68DA65FB68032BFA
:103E680009D97B681B6823F47F7323F003031A1DA9
:103E78007B689A6507E07B681B6823F47F7323F0EF
:103E880003037A6893657B689B6D18461437BD46B3
:103E98005DF8047B704700BFABAAAAAA609400082B
:103EA80080B485B000AF78600023FB737B689B6AA1
:103EB800BB607B689B69002B1FD1BB68032B56D85E
:103EC80001A252F823F000BFE13E0008F33E0008CB
:103ED800E13E0008773F00087B68DB6A03F08073E7
:103EE800002B46D00123FB7343E07B68DB6AB3F108
:103EF800C07F40D10123FB733DE07B689B69B3F52C
:103F0800005F21D1BB68032B37D801A252F823F0F8
:103F1800293F00082F3F0008293F0008413F0008BB
:103F28000123FB7330E07B68DB6A03F08073002BAE
:103F380025D00123FB7322E07B68DB6AB3F1C07FE5
:103F48001FD10123FB731CE0BB68022B03D9BB689C
:103F5800032B03D018E00123FB7315E07B68DB6AB1
:103F680003F08073002B0ED00123FB730BE000BF1E
:103F78000AE000BF08E000BF06E000BF04E000BFA1
:103F880002E000BF00E000BFFB7B18461437BD46C7
:103F98005DF8047B704700BF80B489B000AF7860DB
:103FA800396000237B6100233B610023BB61002350
:103FB800FB6159E10122FB6902FA03F37B613B686B
:103FC8001B687A6913403B613A697B699A4240F001
:103FD80048813B685B6803F00303012B05D03B680D
:103FE8005B6803F00303022B30D17B689B68BB61DD
:103FF800FB695B00032202FA03F3DB43BA6913404F
:10400800BB613B68DA68FB695B0002FA03F3BA69D3
:104018001343BB617B68BA699A607B685B68BB6164
:104028000122FB6902FA03F3DB43BA691340BB615F
:104038003B685B681B0903F00102FB6902FA03F3A2
:10404800BA691343BB617B68BA695A603B685B68AD
:1040580003F00303032B17D07B68DB68BB61FB69A4
:104068005B00032202FA03F3DB43BA691340BB6126
:104078003B689A68FB695B0002FA03F3BA69134369
:10408800BB617B68BA69DA603B685B6803F003036D
:10409800022B23D1FB69DA087B68083253F82230F7
:1040A800BB61FB6903F007039B000F2202FA03F3CD
:1040B800DB43BA691340BB613B681A69FB6903F0CB
:1040C80007039B0002FA03F3BA691343BB61FB6958
:1040D800DA087B680832B96943F822107B681B68E4
:1040E800BB61FB695B00032202FA03F3DB43BA6995
:1040F8001340BB613B685B6803F00302FB695B002C
:1041080002FA03F3BA691343BB617B68BA691A60A0
:104118003B685B6803F44033002B00F0A280002367
:10412800FB60574B5B6C564A43F480435364544BD3
:104138005B6C03F48043FB60FB68524AFB699B0895
:10414800023352F82330BB61FB6903F003039B0081
:104158000F2202FA03F3DB43BA691340BB617B68A1
:10416800494A934219D07B68484A934213D07B68E6
:10417800474A93420DD07B68464A934207D07B68F2
:10418800454A934201D1042308E0072306E00323AC
:1041980004E0022302E0012300E00023FA6902F0B0
:1041A800030292009340BA691343BB613549FB6926
:1041B8009B080233BA6941F82320384B9B68BB61DE
:1041C8003B69DB43BA691340BB613B685B6803F436
:1041D8008013002B03D0BA693B691343BB612F4A94
:1041E800BB6993602D4BDB68BB613B69DB43BA69F4
:1041F8001340BB613B685B6803F40013002B03D0DA
:10420800BA693B691343BB61244ABB69D360234B3A
:104218005B68BB613B69DB43BA691340BB613B68C0
:104228005B6803F40033002B03D0BA693B6913437E
:10423800BB611A4ABB695360184B1B68BB613B6979
:10424800DB43BA691340BB613B685B6803F48033A6
:10425800002B03D0BA693B691343BB610F4ABB69A2
:104268001360FB690133FB61FB690F2B7FF6A2AE7C
:1042780000BF00BF2437BD465DF8047B704700BF10
:1042880000380240003801400000024000040240AB
:1042980000080240000C024000100240003C0140AF
:1042A80080B487B000AF7860396000233B61002399
:1042B800FB600023BB6000237B61BBE001227B69BC
:1042C80002FA03F33B613A683B691340FB60FA6802
:1042D8003B699A4240F0AB805C4A7B699B08023399
:1042E80052F82330BB607B6903F003039B000F2265
:1042F80002FA03F3BA681340BB607B68544A9342DE
:1043080019D07B68534A934213D07B68524A934230
:104318000DD07B68514A934207D07B68504A93423C
:1043280001D1042308E0072306E0032304E0022365
:1043380002E0012300E000237A6902F00302920000
:104348009340BA689A4232D1464B1A68FB68DB43FD
:10435800444913400B60434B5A68FB68DB434149AF
:1043680013404B603F4BDA68FB68DB433D49134021
:10437800CB603C4B9A68FB68DB433A4913408B603F
:104388007B6903F003039B000F2202FA03F3BB606F
:104398002E4A7B699B08023352F82310BB68DA4324
:1043A8002A487B699B080A40023340F823207B682F
:1043B8001A687B695B00032101FA03F3DB431A40A7
:1043C8007B681A607B69DA087B68083253F8221028
:1043D8007B6903F007039B000F2202FA03F3DB4318
:1043E8007A69D20819407B68083243F822107B6842
:1043F800DA687B695B00032101FA03F3DB431A40A7
:104408007B68DA607B685A6801217B6901FA03F3EB
:10441800DB431A407B685A607B689A687B695B005B
:10442800032101FA03F3DB431A407B689A607B6936
:1044380001337B617B690F2B7FF640AF00BF00BF64
:104448001C37BD465DF8047B704700BF003801404B
:10445800000002400004024000080240000C024034
:1044680000100240003C014080B483B000AF786087
:104478000B467B8013467B707B78002B03D07A88B1
:104488007B689A6103E07B881A047B689A6100BFA5
:104498000C37BD465DF8047B704780B485B000AF2B
:1044A80078600B467B807B685B69FB607A88FB6879
:1044B80013401A04FB68D9437B880B401A437B6876
:1044C8009A6100BF1437BD465DF8047B7047000051
:1044D80080B584B000AF78607B68002B01D10123E0
:1044E8002BE17B6893F83D30DBB2002B06D17B686B
:1044F800002283F83C207868FDF7B0F87B68242216
:1045080083F83D207B681B681A687B681B6822F06B
:1045180001021A607B681B681A687B681B6842F492
:1045280000421A607B681B681A687B681B6822F463
:1045380000421A6001F01EFCF8607B685B68814AE3
:10454800934207D8FB68804A934294BF0123002313
:10455800DBB206E0FB687D4A934294BF0123002347
:10456800DBB2002B01D00123E7E0FB68784AA2FB0D
:1045780003239B0CBB607B681B685B6823F03F01CF
:104588007B681B68BA680A435A607B681B681B6AA9
:1045980023F03F017B685B686A4A934202D8BB6894
:1045A800013309E0BB684FF4967202FB03F3694AD2
:1045B800A2FB03239B0901337A6812680B43136239
:1045C8007B681B68DB6923F44F4222F0FF027B689B
:1045D8005B685C498B4219D8FB68591E7B685B682D
:1045E8005B00B1FBF3F3591C40F6FC730B40002B46
:1045F8000AD0FB68591E7B685B685B00B1FBF3F36C
:104608000133C3F30B0351E004234FE07B689B683D
:10461800002B11D1FB68581E7B6859680B465B005C
:104628000B44B0FBF3F30133C3F30B03002B0CBFB4
:1046380001230023DBB212E0FB68581E7B6859682F
:104648000B469B000B4499000B44B0FBF3F301337A
:10465800C3F30B03002B0CBF01230023DBB2002B99
:1046680001D0012322E07B689B68002B0ED1FB68F8
:10467800581E7B6859680B465B000B44B0FBF3F38C
:104688000133C3F30B0343F400430FE0FB68581EE8
:104698007B6859680B469B000B4499000B44B0FBA0
:1046A800F3F30133C3F30B0343F440437968096818
:1046B8001343CB617B681B681B6823F0C0017B68D0
:1046C800DA697B681B6A1A437B681B680A431A60AD
:1046D8007B681B689B6823F4034323F0FF037A6815
:1046E80011697A68D26811437A6812680B4393603B
:1046F8007B681B68DB6823F0FF017B685A697B686D
:104708009B691A437B681B680A43DA607B681B68ED
:104718001A687B681B6842F001021A607B680022F5
:104728001A647B68202283F83D207B6800221A6384
:104738007B68002283F83E20002318461037BD46C8
:1047480080BD00BFA08601007F841E00FF083D00D9
:1047580083DE1B43D34D621080B588B002AFF8608A
:10476800084611461A4603467B810B463B81134691
:10477800FB80FEF761FE7861FB6893F83D30DBB2A1
:10478800202B40F0D9807B690093192301226D49C1
:10479800F86800F08BFC0346002B01D00223CCE024
:1047A800FB6893F83C30012B01D10223C5E0FB687C
:1047B800012283F83C20FB681B681B6803F0010397
:1047C800012B07D0FB681B681A68FB681B6842F05E
:1047D80001021A60FB681B681A68FB681B6822F4F0
:1047E80000621A60FB68212283F83D20FB684022A2
:1047F80083F83E20FB6800221A64FB683A6A5A6212
:10480800FB68BA8C5A85FB685B8D9AB2FB681A857F
:10481800FB684D4ADA62F8883A8979897B6901939D
:10482800BB6A00930346F86800F0C2FA0346002BFF
:1048380052D0012381E07A69B96AF86800F050FD26
:104848000346002B0DD0FB681B6C042B07D1FB68BB
:104858001B681A68FB681B6842F400721A6001231F
:104868006BE0FB685B6A1A78FB681B681A61FB6877
:104878005B6A5A1CFB685A62FB681B8D013B9AB243
:10488800FB681A85FB685B8D9BB2013B9AB2FB689B
:104898005A85FB681B685B6903F00403042B1BD172
:1048A800FB681B8D002B17D0FB685B6A1A78FB68C6
:1048B8001B681A61FB685B6A5A1CFB685A62FB68D2
:1048C8001B8D013B9AB2FB681A85FB685B8D9BB216
:1048D800013B9AB2FB685A85FB681B8D002BAAD155
:1048E8007A69B96AF86800F043FD0346002B0DD0D9
:1048F800FB681B6C042B07D1FB681B681A68FB68F4
:104908001B6842F400721A60012316E0FB681B68FA
:104918001A68FB681B6842F400721A60FB68202260
:1049280083F83D20FB68002283F83E20FB680022C4
:1049380083F83C20002300E0022318461837BD46C0
:1049480080BD00BF020010000000FFFF80B58CB0E2
:1049580002AFF860084611461A4603467B810B46AB
:104968003B811346FB80FEF767FD7862FB6893F88E
:104978003D30DBB2202B40F014827B6A0093192370
:1049880001227B49F86800F091FB0346002B01D017
:10499800022307E2FB6893F83C30012B01D1022384
:1049A80000E2FB68012283F83C20FB681B681B6857
:1049B80003F00103012B07D0FB681B681A68FB682A
:1049C8001B6842F001021A60FB681B681A68FB68E2
:1049D8001B6822F400621A60FB68222283F83D20DB
:1049E800FB68402283F83E20FB6800221A64FB68BB
:1049F8003A6B5A62FB68BA8E5A85FB685B8D9AB22D
:104A0800FB681A85FB685B4ADA62F8883A89798913
:104A18007B6A0193BB6B00930346F86800F05EFA6B
:104A28000346002B01D00123BCE1FB681B8D002B42
:104A380013D100233B62FB681B685B693B62FB6820
:104A48001B689B693B623B6AFB681B681A68FB68CA
:104A58001B6842F400721A6090E1FB681B8D012B01
:104A68001BD1FB681B681A68FB681B6822F480620C
:104A78001A600023FB61FB681B685B69FB61FB68CC
:104A88001B689B69FB61FB69FB681B681A68FB680C
:104A98001B6842F400721A6070E1FB681B8D022BE0
:104AA8001BD1FB681B681A68FB681B6822F48062CC
:104AB8001A60FB681B681A68FB681B6842F400628E
:104AC8001A600023BB61FB681B685B69BB61FB68FC
:104AD8001B689B69BB61BB6950E100237B61FB6874
:104AE8001B685B697B61FB681B689B697B617B69F1
:104AF80044E1FB681B8D032B00F2F180FB681B8DE2
:104B0800012B23D17A6AB96BF86800F079FC034667
:104B1800002B01D0012345E1FB681B681A69FB687B
:104B28005B6AD2B21A70FB685B6A5A1CFB685A62ED
:104B3800FB681B8D013B9AB2FB681A85FB685B8D8D
:104B48009BB2013B9AB2FB685A8517E1FB681B8D43
:104B5800022B4ED17B6A0093BB6B00220649F86892
:104B680000F0A4FA0346002B08D001231AE100BF85
:104B7800020010000000FFFF04000100FB681B6832
:104B88001A68FB681B6842F400721A60FB681B68AD
:104B98001A69FB685B6AD2B21A70FB685B6A5A1CB6
:104BA800FB685A62FB681B8D013B9AB2FB681A8549
:104BB800FB685B8D9BB2013B9AB2FB685A85FB6828
:104BC8001B681A69FB685B6AD2B21A70FB685B6A79
:104BD8005A1CFB685A62FB681B8D013B9AB2FB6842
:104BE8001A85FB685B8D9BB2013B9AB2FB685A85BC
:104BF800C4E07B6A0093BB6B00226C49F86800F044
:104C080055FA0346002B01D00123CBE0FB681B6853
:104C18001A68FB681B6822F480621A60FB681B68CC
:104C28001A69FB685B6AD2B21A70FB685B6A5A1C25
:104C3800FB685A62FB681B8D013B9AB2FB681A85B8
:104C4800FB685B8D9BB2013B9AB2FB685A857B6A15
:104C58000093BB6B00225549F86800F027FA034619
:104C6800002B01D001239DE0FB681B681A68FB68D4
:104C78001B6842F400721A60FB681B681A69FB68BB
:104C88005B6AD2B21A70FB685B6A5A1CFB685A628C
:104C9800FB681B8D013B9AB2FB681A85FB685B8D2C
:104CA8009BB2013B9AB2FB685A85FB681B681A697C
:104CB800FB685B6AD2B21A70FB685B6A5A1CFB68B5
:104CC8005A62FB681B8D013B9AB2FB681A85FB6828
:104CD8005B8D9BB2013B9AB2FB685A854EE07A6ABB
:104CE800B96BF86800F08CFB0346002B01D0012358
:104CF80058E0FB681B681A69FB685B6AD2B21A70D5
:104D0800FB685B6A5A1CFB685A62FB681B8D013B97
:104D18009AB2FB681A85FB685B8D9BB2013B9AB21D
:104D2800FB685A85FB681B685B6903F00403042B66
:104D380024D1FB681B8D032B07D1FB681B681A68FD
:104D4800FB681B6822F480621A60FB681B681A699A
:104D5800FB685B6AD2B21A70FB685B6A5A1CFB6814
:104D68005A62FB681B8D013B9AB2FB681A85FB6887
:104D78005B8D9BB2013B9AB2FB685A85FB681B8D21
:104D8800002B7FF4B6AEFB68202283F83D20FB6839
:104D9800002283F83E20FB68002283F83C20002391
:104DA80000E0022318462837BD4680BD04000100F4
:104DB80080B588B002AFF860084611461A46034627
:104DC8007B810B463B811346FB80FB681B681A6896
:104DD800FB681B6842F480721A607B6A00933B6A26
:104DE80000224FF00111F86800F060F90346002B2B
:104DF8000DD0FB681B681B6803F48073B3F5807FD4
:104E080003D1FB684FF400721A6403235FE07B89C7
:104E1800DBB21A46FB681B6802F0FE021A617B6A65
:104E28003A6A2D49F86800F0BBF90346002B01D017
:104E380001234CE000237B61FB681B685B697B6195
:104E4800FB681B689B697B617B697A6A396AF868C9
:104E580000F046FA0346002B0DD0FB681B6C042BB0
:104E680007D1FB681B681A68FB681B6842F400726C
:104E78001A6001232BE0FB88012B05D13B89DAB2AC
:104E8800FB681B681A6121E03B891B0A9BB2DAB2F6
:104E9800FB681B681A617A6A396AF86800F020FAB8
:104EA8000346002B0DD0FB681B6C042B07D1FB6855
:104EB8001B681A68FB681B6842F400721A600123B9
:104EC80005E03B89DAB2FB681B681A6100231846C3
:104ED8001837BD4680BD00BF0200010080B588B00C
:104EE80002AFF860084611461A4603467B810B4616
:104EF8003B811346FB80FB681B681A68FB681B68CC
:104F080042F480621A60FB681B681A68FB681B68B9
:104F180042F480721A607B6A00933B6A00224FF069
:104F28000111F86800F0C2F80346002B0DD0FB68A9
:104F38001B681B6803F48073B3F5807F03D1FB689B
:104F48004FF400721A640323AAE07B89DBB21A4685
:104F5800FB681B6802F0FE021A617B6A3A6A5249D2
:104F6800F86800F01DF90346002B01D0012397E0F3
:104F780000237B61FB681B685B697B61FB681B68BE
:104F88009B697B617B697A6A396AF86800F0A8F9DD
:104F98000346002B0DD0FB681B6C042B07D1FB6864
:104FA8001B681A68FB681B6842F400721A600123C8
:104FB80076E0FB88012B05D13B89DAB2FB681B68D8
:104FC8001A6121E03B891B0A9BB2DAB2FB681B68B5
:104FD8001A617A6A396AF86800F082F90346002B88
:104FE8000DD0FB681B6C042B07D1FB681B681A6883
:104FF800FB681B6842F400721A60012350E03B8989
:10500800DAB2FB681B681A617A6A396AF86800F0D4
:1050180067F90346002B0DD0FB681B6C042B07D1E6
:10502800FB681B681A68FB681B6842F400721A6008
:10503800012335E0FB681B681A68FB681B6842F4AB
:1050480080721A607B6A00933B6A00224FF001115C
:10505800F86800F02BF80346002B0DD0FB681B689E
:105068001B6803F48073B3F5807F03D1FB684FF4AA
:1050780000721A64032313E07B89DBB243F0010357
:10508800DAB2FB681B681A617B6A3A6A0649F868F3
:1050980000F086F80346002B01D0012300E000232E
:1050A80018461837BD4680BD0200010080B584B09F
:1050B80000AFF860B9603B601346FB7148E03B689D
:1050C800B3F1FF3F44D0FEF7B7F90246BB69D31AE4
:1050D8003A689A4202D33B68002B39D1BB681B0C53
:1050E800DBB2012B0DD1FB681B685B69DA43BB6837
:1050F80013409BB2002B0CBF01230023DBB21A46DE
:105108000CE0FB681B689B69DA43BB6813409BB2E1
:10511800002B0CBF01230023DBB21A46FB799A420D
:1051280016D1FB6800221A63FB68202283F83D2011
:10513800FB68002283F83E20FB681B6C43F02002CA
:10514800FB681A64FB68002283F83C20012323E0F3
:10515800BB681B0CDBB2012B0DD1FB681B685B69BC
:10516800DA43BB6813409BB2002B0CBF012300231A
:10517800DBB21A460CE0FB681B689B69DA43BB6824
:1051880013409BB2002B0CBF01230023DBB21A464D
:10519800FB799A4293D0002318461037BD4680BD4C
:1051A80080B584B000AFF860B9607A603B6071E0A8
:1051B800FB681B685B6903F48063B3F5806F23D1D8
:1051C800FB681B681A68FB681B6842F400721A6067
:1051D800FB681B686FF480625A61FB6800221A63DF
:1051E800FB68202283F83D20FB68002283F83E20DC
:1051F800FB681B6C43F00402FB681A64FB6800221E
:1052080083F83C20012367E07B68B3F1FF3F41D07E
:10521800FEF712F902463B68D31A7A689A4202D31B
:105228007B68002B36D1BB681B0CDBB2012B0CD181
:10523800FB681B685B69DA43BB6813409BB2002BB1
:1052480014BF01230023DBB20BE0FB681B689B69DA
:10525800DA43BB6813409BB2002B14BF0123002321
:10526800DBB2002B16D0FB6800221A63FB682022F1
:1052780083F83D20FB68002283F83E20FB681B6C06
:1052880043F02002FB681A64FB68002283F83C2084
:10529800012321E0BB681B0CDBB2012B0CD1FB689E
:1052A8001B685B69DA43BB6813409BB2002B14BFD1
:1052B80001230023DBB20BE0FB681B689B69DA4320
:1052C800BB6813409BB2002B14BF01230023DBB241
:1052D800002B7FF46DAF002318461037BD4680BD04
:1052E80080B584B000AFF860B9607A6034E0F868DF
:1052F80000F0E3F80346002B01D0012334E0BB683B
:10530800B3F1FF3F28D0FEF797F802467B68D31A1F
:10531800BA689A4202D3BB68002B1DD1FB681B6890
:105328005B6903F08003802B16D0FB6800221A63A8
:10533800FB68202283F83D20FB68002283F83E208A
:10534800FB681B6C43F02002FB681A64FB680022B0
:1053580083F83C20012307E0FB681B685B6903F0C6
:105368008003802BC3D1002318461037BD4680BD6B
:1053780080B584B000AFF860B9607A6034E0F8684E
:1053880000F09BF80346002B01D0012334E0BB68F2
:10539800B3F1FF3F28D0FEF74FF802467B68D31AD7
:1053A800BA689A4202D3BB68002B1DD1FB681B6800
:1053B8005B6903F00403042B16D0FB6800221A6310
:1053C800FB68202283F83D20FB68002283F83E20FA
:1053D800FB681B6C43F02002FB681A64FB68002220
:1053E80083F83C20012307E0FB681B685B6903F036
:1053F8000403042BC3D1002318461037BD4680BDD3
:1054080080B584B000AFF860B9607A6049E0FB68A5
:105418001B685B6903F01003102B19D1FB681B682C
:105428006FF010025A61FB6800221A63FB682022A1
:1054380083F83D20FB68002283F83E20FB681A6C45
:10544800FB681A64FB68002283F83C20012330E0E3
:10545800FDF7F2FF02467B68D31ABA689A4202D374
:10546800BB68002B1DD1FB681B685B6903F0400318
:10547800402B16D0FB6800221A63FB68202283F8B1
:105488003D20FB68002283F83E20FB681B6C43F03C
:105498002002FB681A64FB68002283F83C20012381
:1054A80007E0FB681B685B6903F04003402BAED143
:1054B800002318461037BD4680BD80B483B000AFC6
:1054C80078607B681B685B6903F48063B3F5806F61
:1054D8001BD17B681B686FF480625A617B6800226D
:1054E8001A637B68202283F83D207B68002283F8BA
:1054F8003E207B681B6C43F004027B681A647B685F
:10550800002283F83C20012300E0002318460C37D2
:10551800BD465DF8047B704780B586B000AF786003
:105528007B68002B01D1012367E27B681B6803F0CD
:105538000103002B75D0884B9B6803F00C03042BE8
:105548000CD0854B9B6803F00C03082B12D1824BBF
:105558005B6803F48003B3F5800F0BD17E4B1B68A7
:1055680003F40033002B5BD07B685B68002B57D1BA
:10557800012342E27B685B68B3F5803F06D1764B36
:105588001B68754A43F4803313601DE07B685B68D1
:10559800B3F5A02F0CD1704B1B686F4A43F48023DE
:1055A80013606D4B1B686C4A43F4803313600BE047
:1055B800694B1B68684A23F480331360664B1B6889
:1055C800654A23F4802313607B685B68002B13D043
:1055D800FDF732FF386108E0FDF72EFF02463B6910
:1055E800D31A642B01D9032307E25B4B1B6803F42E
:1055F8000033002BF0D014E0FDF71EFF386108E0FF
:10560800FDF71AFF02463B69D31A642B01D903231D
:10561800F3E1514B1B6803F40033002BF0D100E099
:1056280000BF7B681B6803F00203002B63D04A4B62
:105638009B6803F00C03002B0BD0474B9B6803F0CF
:105648000C03082B1CD1444B5B6803F48003002B2C
:1056580016D1414B1B6803F00203002B05D07B6871
:10566800DB68012B01D00123C7E13B4B1B6823F00A
:10567800F8027B681B69DB00374913430B603AE08B
:105688007B68DB68002B20D0344B01221A60FDF7C1
:10569800D3FE386108E0FDF7CFFE02463B69D31A16
:1056A800022B01D90323A8E12B4B1B6803F002034B
:1056B800002BF0D0284B1B6823F0F8027B681B698D
:1056C800DB00254913430B6015E0244B00221A60C8
:1056D800FDF7B2FE386108E0FDF7AEFE02463B6911
:1056E800D31A022B01D9032387E11B4B1B6803F054
:1056F8000203002BF0D17B681B6803F00803002B22
:1057080036D07B685B69002B16D0154B01221A60D6
:10571800FDF792FE386108E0FDF78EFE02463B6910
:10572800D31A022B01D9032367E10B4B5B6F03F0FC
:105738000203002BF0D01BE0094B00221A60FDF792
:105748007BFE38610EE0FDF777FE02463B69D31A0F
:10575800022B07D9032350E10038024000004742DA
:10576800800E4742884B5B6F03F00203002BEAD19F
:105778007B681B6803F00403002B00F0978000236C
:10578800FB75814B1B6C03F08053002B0FD100235A
:10579800BB607D4B1B6C7C4A43F0805313647A4B8F
:1057A8001B6C03F08053BB60BB680123FB75774B10
:1057B8001B6803F48073002B18D1744B1B68734A61
:1057C80043F480731360FDF737FE386108E0FDF796
:1057D80033FE02463B69D31A022B01D903230CE19D
:1057E8006A4B1B6803F48073002BF0D07B689B68BE
:1057F800012B06D1644B1B6F634A43F00103136707
:105808001CE07B689B68052B0CD15F4B1B6F5E4AC5
:1058180043F0040313675C4B1B6F5B4A43F00103BF
:1058280013670BE0584B1B6F574A23F001031367AC
:10583800554B1B6F544A23F0040313677B689B681E
:10584800002B15D0FDF7F8FD38610AE0FDF7F4FDEF
:1058580002463B69D31A41F28832934201D90323A5
:10586800CBE0494B1B6F03F00203002BEED014E092
:10587800FDF7E2FD38610AE0FDF7DEFD02463B690F
:10588800D31A41F28832934201D90323B5E03E4B43
:105898001B6F03F00203002BEED1FB7D012B05D11A
:1058A800394B1B6C384A23F0805313647B689B691F
:1058B800002B00F0A180344B9B6803F00C03082BED
:1058C8005CD07B689B69022B41D1314B00221A6066
:1058D800FDF7B2FD386108E0FDF7AEFD02463B6911
:1058E800D31A022B01D9032387E0274B1B6803F047
:1058F8000073002BF0D17B68DA697B681B6A1A4356
:105908007B685B6A9B011A437B689B6A5B08013B67
:105918001B041A437B68DB6A1B061B4913434B6055
:105928001B4B01221A60FDF787FD386108E0FDF77F
:1059380083FD02463B69D31A022B01D903235CE09D
:10594800114B1B6803F00073002BF0D054E0104B90
:1059580000221A60FDF770FD386108E0FDF76CFD64
:1059680002463B69D31A022B01D9032345E0064BB3
:105978001B6803F00073002BF0D13DE07B689B6946
:10598800012B07D1012338E00038024000700040A5
:10599800600047421B4B5B68FB607B689B69012B7F
:1059A80028D0FB6803F480027B68DB699A4221D126
:1059B800FB6803F03F027B681B6A9A421AD1FA68B7
:1059C80047F6C07313407A68526A9201934211D124
:1059D800FB6803F440327B689B6A5B08013B1B044D
:1059E8009A4207D1FB6803F070627B68DB6A1B068A
:1059F8009A4201D0012300E0002318461837BD461B
:105A080080BD00BF0038024080B584B000AF786028
:105A180039607B68002B01D10123CCE0684B1B68FF
:105A280003F007033A689A420CD9654B3A68D2B238
:105A38001A70634B1B6803F007033A689A4201D057
:105A48000123B8E07B681B6803F00203002B20D019
:105A58007B681B6803F00403002B05D0594B9B6837
:105A6800584A43F4E05393607B681B6803F00803CB
:105A7800002B05D0534B9B68524A43F46043936014
:105A8800504B9B6823F0F0027B689B684D49134399
:105A98008B607B681B6803F00103002B44D07B6894
:105AA8005B68012B07D1474B1B6803F40033002BBD
:105AB80019D101237FE07B685B68022B03D07B68E8
:105AC8005B68032B07D13F4B1B6803F00073002B67
